S014000053544B333730305F626C696E6B2E733337B5
S113000000000220FD04000029050000290500006D
S11300102905000029050000290500002905000024
S11300202905000029050000290500002905000014
S113003029050000290500002905000045130000DA
S113004029050000290500002905000029050000F4
S113005029050000290500002905000029050000E4
S113006029050000290500002905000029050000D4
S113007029050000290500002905000029050000C4
S113008029050000290500002905000029050000B4
S113009029050000290500002905000029050000A4
S11300A02905000029050000290500002905000094
S11300B02905000029050000290500002905000084
S11300C02905000029050000290500002905000074
S11300D029050000290500002905000010B5054C7C
S11300E0237833B9044B13B10448AFF300800123E0
S11300F0237010BD740000200000000040170000B1
S1130100084B10B51BB108480849AFF300800848F4
S1130110036803B910BD074B002BFBD0BDE81040AA
S1130120184700BF000000004017000078000020BE
S11301307000002000000000154B002B08BF134B7B
S11301409D46A3F5803A00218B460F461348144A76
S1130150121A01F07FF90F4B002B00D098470E4B79
S1130160002B00D098470020002104000D000D480A
S1130170002802D00C48AFF3008001F045F92000BC
S1130180290001F003F901F02BF900BF0000080079
S113019000000220000000000000000074000020A5
S11301A098000020000000000000000080B582B02C
S11301B000AF03463960FB71FB79002B1FD0FB793C
S11301C0012B19D0FB79022B13D0FB79032B0DD013
S11301D0FB79042B07D0FB79052B02D141F6FF7381
S11301E00FE000230DE04FF6FF730AE04FF6FF73B4
S11301F007E04FF6FF7304E04FF6FF7301E04FF69C
S1130200FF733A68134103F00103002B04D10B4838
S113021040F2F32100F058FA0949FA793B680120C9
S113022000FA03F318461346DB0013449B000B4407
S1130230103318600837BD4680BD00BF801400002D
S11302400060004080B582B000AF03463960FB71A6
S1130250FB79002B1FD0FB79012B19D0FB79022BE2
S113026013D0FB79032B0DD0FB79042B07D0FB793A
S1130270052B02D141F6FF730FE000230DE04FF68A
S1130280FF730AE04FF6FF7307E04FF6FF7304E0D5
S11302904FF6FF7301E04FF6FF733A68134103F022
S11302A00103002B04D10B484FF4437100F00CFA06
S11302B00949FA793B68012000FA03F3184613460A
S11302C0DB0013449B000B44183318600837BD4609
S11302D080BD00BF801400000060004080B582B083
S11302E000AF1248012100F029FC1148012100F05F
S11302F025FC00237B6011E00E4A7B6812F8331062
S11303000C4A7B68DB0013445B68084619460422E8
S1130310002300F0C3FE7B6801337B607B68012B04
S1130320EADD002318460837BD4680BD408104003D
S113033000D20400F414000080B582B000AF7860ED
S11303407B68002B11DB7B68012B0EDC0A4A7B687F
S113035012F83310084A7B68DB0013445B680846D4
S11303601946FFF723FF002301E04FF0FF3318463F
S11303700837BD4680BD00BFF414000080B582B0CC
S113038000AF78607B68002B11DB7B68012B0EDCEF
S11303900A4A7B6812F83310084A7B68DB0013446E
S11303A05B6808461946FFF74DFF002301E04FF054
S11303B0FF3318460837BD4680BD00BFF414000063
S11303C080B582B000AF394A384B5B6C43F40053BC
S11303D05364374A364BD3F8203143F00403C2F850
S11303E02031334A324BD3F8203123F44073C2F81E
S11303F020312F4A2E4BD3F8B83023F47063C2F85F
S1130400B8302B4A2A4BD3F8B83043F48063C2F88F
S1130410B830264B10221A6200BF244BDB6A03F06B
S11304202003002BF9D0234A224B1B6843F001031D
S11304301360204A1F4BDB6843F08073D3601E4B6C
S11304401E4A1A601E4800F0EBFB034603F5D52351
S113045003F2FC437B607B68DB081A4AA2FB03239C
S11304609B0A3B60184A3B68013B1361164B02220E
S1130470C3F8F020144B4FF48072C3F804234FF0F8
S11304806043124AC3F8B02F4FF06043104AC3F8D8
S1130490802E4FF060424FF06043D3F8003E43F0AB
S11304A00103C2F8003E0837BD4680BD00800C4001
S11304B000600040F0ED00E0001000E0FF13014098
S11304C006000C0017916502000004E055CEACC58F
S11304D00900010080B582B000AF4FF07E637B60FD
S11304E07B681B68002B01D1002302E0FFF768FF43
S11304F0012318460837BD4680BD00BF0648804723
S11305000649074A074B9A42BEBF51F8040B42F80A
S1130510040BF8E7FFF710FE7D0600004C170000FF
S11305200000002074000020FEE700BF80B400AF8C
S1130530044BDB6C1B0EDBB21846BD465DF8047B36
S1130540704700BFB081E00F80B582B000AF00F00B
S113055015F87860074B5B6803F00F031A467B6855
S1130560D3407B60044A7B6813607B681846083775
S1130570BD4680BD00800C409000002080B582B054
S113058000AF334BDB6A03F47053B3F5805F0AD0DA
S1130590B3F5005F03D0B3F5006F08D00BE02D4B2B
S11305A01B687B6047E04FF400437B6043E02A4BC9
S11305B01B687B603FE0264BDB6803F4E063B3F524
S11305C0007F1BD0B3F5007F05D8002B24D0B3F5F2
S11305D0807F16D02BE0B3F5806F09D0B3F5A06F00
S11305E003D0B3F5407F06D021E01C4B7B6021E0B3
S11305F01B4B7B601EE01B4B7B601BE01A4B7B603C
S113060018E0FFF793FF0346122B02D9174B7B60C8
S113061010E0174B7B600DE0FFF788FF0346122BB9
S113062002D9144B7B6005E0134B7B6002E000238E
S11306307B6000BF00BF064B1B6803F4E0339B0BD9
S113064001337A68B2FBF3F318460837BD4680BD20
S113065000800C400400002000000020003FAB019B
S1130660406F4001809FD500C0D8A70040B564000A
S1130670C0CF6A00804F120040420F0080B400AF28
S1130680BD465DF8047B704780B400AF4FF400436F
S11306901846BD465DF8047B704700BF80B400AFC8
S11306A04FF47A731846BD465DF8047B704700BF6B
S11306B080B400AF034B1B681846BD465DF8047B4D
S11306C0704700BF0400002080B483B000AF78609E
S11306D03960FEE780B487B000AFF860B9607A6033
S11306E0FB6803F10473DA00BB6813449B007B616D
S11306F07B697A681A601C37BD465DF8047B7047D5
S113070080B485B000AF786039607B6803F104730E
S1130710DA003B6813449B00FB60FB681B681846C7
S11307201437BD465DF8047B704700BF80B584B0C4
S113073000AF78607B68002B03D07B68B3F5004F73
S113074004D9084840F21951FFF7BEFF7B68B3FA99
S113075083F3C3F11F03FB60FB6818461037BD46E3
S113076080BD00BF0415000080B400AF044BDB6CF7
S11307701B0EDBB21846BD465DF8047B704700BF14
S1130780B081E00F80B400AF054BDB6C03F47F0352
S11307901B0CDBB21846BD465DF8047B704700BFF6
S11307A0B081E00F80B582B000AFFFF7EBFF0346E6
S11307B04A2B04D0792B02D0482B21D022E0164BAF
S11307C01B699BB203F03F039BB21B02FB80124BDD
S11307D09B6903F0F0039AB2FB881343FB800E4B32
S11307E0DB6903F0F0031B099AB2FB881343FB8017
S11307F0FB88B3F5017F01D3084B08E0084B06E002
S1130800074B04E007489A21FFF75EFF00231846D0
S11308100837BD4680BD00BFD0FF0FE000366E0133
S11308200048E8017415000080B584B000AF78601A
S113083039607A683B689A428CBF01230023DBB29B
S1130840FB6006481E21FA68FFF744FF04480821AC
S1130850FA68FFF73FFF1037BD4680BD00800C40AB
S113086004800C4080B582B000AF0B481E21FFF716
S113087047FF786009480821FFF742FF38607A682B
S11308803B689A4203D00648D821FFF71DFF7B68D6
S113089018460837BD4680BD00800C4004800C40DB
S11308A07415000080B582B000AF244B5B6903F47B
S11308B0E063B3F5007F1CD0B3F5007F05D8002BAF
S11308C025D0B3F5807F1FD02AE0B3F5C06F24D0C4
S11308D0B3F5E06F1ED0B3F5407F21D1FFF744FF9D
S11308E00346122B02D9164B7B6021E0154B7B602B
S11308F01EE0FFF739FF0346122B02D9124B7B602F
S113090016E0124B7B6013E0114B7B6010E0114B3F
S11309107B600DE0104B7B600AE0104B7B6007E0CE
S11309200F484FF48D71FFF7CFFE00237B6000BFAB
S11309307B6818460837BD4680BD00BF00800C4068
S1130940804F120040420F0040B56400C0CF6A00DF
S1130950C0D8A700809FD500406F4001003FAB0185
S11309607415000080B582B000AF0F4800F04AFA59
S11309700346FB70FB78072B05D0082B07D1FFF744
S1130980FDFD78600BE0FFF78DFF786007E0074816
S113099040F24311FFF798FE00237B6000BF7B68A1
S11309A018460837BD4680BD06000C0074150000CB
S11309B090B585B000AF78600023BB607B683B4A8C
S11309C0934208D03A4A934205D03A484FF4F17121
S11309D0FFF77AFE00E000BF786800F013FA0346E0
S11309E0FB607B68314A934203D0314A934206D07C
S11309F00CE0314B9B6A03F00303FB600CE02E4BCD
S1130A009B6A03F00C039B08FB6005E029484FF444
S1130A100371FFF759FE00BFFB68032B39D801A20D
S1130A2052F823F05B0A0000350A00003D0A00007A
S1130A30450A0000FFF728FEB86032E0FFF738FEF1
S1130A40B8602EE0FFF780FD0446FFF70BFF034676
S1130A50013324FA03F3BB6023E00023BB607B680B
S1130A60124A934203D07B68114A934210D1124B2D
S1130A709A6A7B680D498B4201D1102300E014234C
S1130A8022FA03F3002B03D0FFF708FEB86008E056
S1130A9007E0084840F23721FFF716FE0023BB6049
S1130AA000BFBB6818461437BD4690BD02001A004B
S1130AB003001C007415000000800C4080B483B057
S1130AC000AF7860094B5B6D03F00103002B00D08D
S1130AD006E000BF054B1A6D7B681340002BF9D16B
S1130AE00C37BD465DF8047B704700BF00800C40A6
S1130AF080B582B000AF104800F084F90346FB7063
S1130B00FB78032B07D0082B09D0022B0BD1FFF75E
S1130B10CFFD78600AE0FFF7B7FD786006E0FFF7E5
S1130B202DFD786002E000237B6000BF7B681846DF
S1130B300837BD4680BD00BF0723220090B587B0AB
S1130B4000AF78600B46FB7000233B617B681B0A97
S1130B5003F00F03013B092B37D801A252F823F00D
S1130B60A50B0000AB0B0000890B0000CB0B0000B1
S1130B70CB0B0000B10B0000BB0B0000CB0B000043
S1130B80CB0B0000C50B00001D4B7B611D4800F022
S1130B9047F80446FFF706FE034620461946FFF7CA
S1130BA043FE18E0184B7B6115E0184B7B6112E0A3
S1130BB0174B7B6101233B610DE0164B7B611023D6
S1130BC03B6108E0144B7B6105E014484FF4BD61C0
S1130BD0FFF77AFD10E07B681B0B03F01F03FB603B
S1130BE03B69002B02D03869FFF768FFFB7878690E
S1130BF0F9681A46FFF76EFD1C37BD4690BD00BF6D
S1130C0040800C400043020008800C4044800C40AB
S1130C1058800C4060800C4078800C4074150000B3
S1130C2090B585B000AF78607B6803F47813B3F5B2
S1130C30B01F00F0AB80B3F5B01F1AD8B3F5402F46
S1130C4000F0BF80B3F5402F08D8B3F5003F3CD087
S1130C50B3F5802F2DD0002B27D0BEE0B3F5801F35
S1130C603CD0B3F5A01F47D0B3F5602F00F0AD80A2
S1130C70B3E0B3F5081F00F0AC80B3F5081F0AD841
S1130C80B3F5D01F25D0B3F5E01F7AD0B3F5C01F5C
S1130C9000F08980A1E0B3F5201F4ED0B3F5281FE2
S1130CA062D0B3F5181F35D097E0FFF767FCF86002
S1130CB09BE0FFF763FCF8604E4B9B6803F00F0367
S1130CC01A46FB68D340FB608FE0FFF73DFCF860F9
S1130CD08BE04948FFF76CFEF86086E04648FFF772
S1130CE067FEF860434B9B6E03F0F0031B091A4642
S1130CF0FB68D340FB6078E03F48FFF759FEF8609B
S1130D003C4B9B6E03F470631B0A1A46FB68D3408A
S1130D10FB606AE03848FFF74BFEF860354B9B6E8A
S1130D2003F440531C0B1020FFF700FD034623443B
S1130D301A46FB68D340FB6057E02F48FFF738FEA4
S1130D40F8602C4B9B6E03F440531B0B1A46FB6854
S1130D50D340FB60274BDB6F03F007030133FA68D2
S1130D60B2FBF3F3FB6040E02348FFF721FEF86099
S1130D70204B9B6E03F003031A46FB68D340FB60D1
S1130D8033E01E48FFF714FEF8602EE01B48FFF71F
S1130D900FFEF860174B1B6F03F003031A46FB6842
S1130DA0D340FB6021E01548FFF702FEF860114BC9
S1130DB01B6F03F030031B091A46FB68D340FB602A
S1130DC013E0FFF7CFFDF8600FE0FFF76BFDF8606D
S1130DD00BE0FFF78DFEF86007E0094840F2AA61D6
S1130DE0FFF772FC0023FB6000BFFB681846143752
S1130DF0BD4690BD00800C4002001A0003001C0098
S1130E007415000080B584B000AF78600123FB73D3
S1130E107B6803F00F03BB60BB68013B062B00F249
S1130E20938001A252F823F0450E00007B0E0000CF
S1130E30B70E0000490F0000490F0000F30E000038
S1130E40150F0000474BDB6A03F47053B3F5805F62
S1130E5009D0B3F5005F03D0B3F5006F06D008E006
S1130E600223FB7308E00323FB7305E00423FB73F5
S1130E7002E00523FB7300BF6EE03A4B9B6A03F06C
S1130E800303022B06D0032B07D0012B08D1032325
S1130E90FB730FE00223FB730CE00623FB7309E0F2
S1130EA0304B9B6A03F48033002B02D00923FB737D
S1130EB000E000BF50E02B4B9B6A03F00C03082BAF
S1130EC006D00C2B07D0042B08D10323FB730FE0AF
S1130ED00223FB730CE00623FB7309E0214B9B6A9E
S1130EE003F48013002B02D00923FB7300E000BF3E
S1130EF032E01C4B1B6803F08053002B03D0B3F18A
S1130F00805F03D028E00723FB7302E00823FB7310
S1130F1000BF21E0134BDB6A03F46033B3F5803F79
S1130F2008D0B3F5003F08D0B3F5004F08D108232B
S1130F30FB7308E00223FB7305E00323FB7302E069
S1130F400123FB7300BF07E0074840F66A11FFF76F
S1130F50BBFB0023FB7300BFFB7B18461037BD4669
S1130F6080BD00BF00800C407415000080B582B0C5
S1130F7000AF03463960FB71FB79002B1FD0FB796E
S1130F80012B19D0FB79022B13D0FB79032B0DD045
S1130F90FB79042B07D0FB79052B02D141F6FF73B3
S1130FA00FE000230DE04FF6FF730AE04FF6FF73E6
S1130FB007E04FF6FF7304E04FF6FF7301E04FF6CE
S1130FC0FF733A68134103F00103002B04D10B486B
S1130FD040F2C621FFF778FB0949FA793B68012002
S1130FE000FA03F318461346DB0013449B000B443A
S1130FF0103358600837BD4680BD00BFE4150000BB
S11310000060004080B582B000AF03463960FB71D8
S1131010FB79002B1FD0FB79012B19D0FB79022B14
S113102013D0FB79032B0DD0FB79042B07D0FB796C
S1131030052B02D141F6FF730FE000230DE04FF6BC
S1131040FF730AE04FF6FF7307E04FF6FF7304E007
S11310504FF6FF7301E04FF6FF733A68134103F054
S11310600103002B04D10B4840F2F321FFF72CFBC2
S11310700949FA793B68012000FA03F3184613463C
S1131080DB0013449B000B44103318600837BD4643
S113109080BD00BFE41500000060004090B585B03D
S11310A000AFB9607B600346FB731346BB73FB7BE5
S11310B0002B1FD0FB7B012B19D0FB7B022B13D001
S11310C0FB7B032B0DD0FB7B042B07D0FB7B052B79
S11310D002D141F6FF730FE000230DE04FF6FF73DA
S11310E00AE04FF6FF7307E04FF6FF7304E04FF694
S11310F0FF7301E04FF6FF73BA68134103F0010375
S1131100002B04D137484FF48971FFF7DDFABB7B1C
S1131110002B0DD07B68002B05D0FB7B1846B968EB
S1131120FFF770FF04E0FB7B1846B968FFF71EFF6A
S1131130BB68072B1CD82C4CFA7B2B48F97B0B463D
S1131140DB000B449B0003445B68B96889000846D4
S11311500F218140C9430B40B97BB86880008140AE
S113116019431346DB0013449B002344596024E0D5
S11311701D4CFA7B1C48F97B0B46DB000B449B009F
S1131180034408331968BB6803F18043083B9B00A0
S113119018460F238340DB431940B87BBB6803F137
S11311A08043083B9B0000FA03F319431346DB001A
S11311B013449B00234408331960BB7B002B0DD1DF
S11311C07B68002B05D0FB7B1846B968FFF71AFF34
S11311D004E0FB7B1846B968FFF7C8FE1437BD4628
S11311E090BD00BF581600000060004080B584B078
S11311F000AF78607B68002B03D11A483E21FFF7CB
S113120063FA194B5B69DBB203F00F03DBB29B009B
S1131210FB73154B1B6903F0C0039B09DAB2FB7B1C
S11312201343FB737B68FA7B9A700F4B1B69DBB229
S113123003F03F03DAB27B685A700B4B9B69DBB255
S113124023F00F03FB73084BDB6903F0F0031B0966
S1131250DAB2FB7B1343FB737B68FA7B1A7010379B
S1131260BD4680BDC8160000D0FF0FE080B483B037
S113127000AF03463960FB7197F90730002B0BDA96
S11312800D49FB7903F00F03043B3A68D2B25201D3
S1131290D2B20B441A7609E0084997F907303A6844
S11312A0D2B25201D2B20B4483F800230C37BD46AC
S11312B05DF8047B704700BF00ED00E000E100E052
S11312C080B582B000AF78607B68013BB3F1807F6A
S11312D001D301230FE00A4A7B68013B53604FF0BE
S11312E0FF300721FFF7C2FF054B00229A60044B31
S11312F007221A60002318460837BD4680BD00BF88
S113130010E000E080B582B000AF0C4B1B687B603E
S11313103B461846FFF76AFF7B681B0E0F2B0AD962
S11313203B78032B07D1064A054B1B6823F0500377
S113133043F0100313600837BD4680BDFC81E00F05
S1131340C0800C4080B400AF044B1B680133034AD7
S11313501360BD465DF8047B704700BF9400002015
S113136080B485B000AF7860074B1B68FB6000BF9A
S1131370054B1A68FB68D21A7B689A42F8D3143773
S1131380BD465DF8047B70479400002080B500AF33
S1131390FFF7B8FFFFF79EF80F48FFF741FC02463E
S11313A00E4BA3FB02239B091846FFF789FF034654
S11313B0002B00D0FEE7FEF791FF0020FEF7BCFFF4
S11313C00020FEF7DBFF0120FEF7D8FF4FF47A7010
S11313D0FFF7C6FFF4E700BF50000200D34D6210D0
S11313E008B5074B044613B10021AFF30080054B49
S11313F01868836A03B19847204600F033F800BFA9
S1131400000000003C1700000E4B70B51E460E4C49
S11314100025E41AA410A54204D056F825309847B4
S11314200135F8E700F020F8084B094C1E46E41A91
S1131430A4100025A54204D056F82530984701355C
S1131440F8E770BD680000206800002068000020F4
S11314506C00002003460244934202D003F8011BAF
S1131460FAE77047FEE700BFF8B500BFF8BC08BC58
S11314709E467047F8B500BFF8BC08BC9E4670474E
S11314802F4170706C69636174696F6E732F536957
S11314906D706C69636974792053747564696F2E17
S11314A06170702F436F6E74656E74732F45636C37
S11314B0697073652F646576656C6F7065722F73E0
S11314C0646B732F65787833322F76352E302E3057
S11314D02E302F2F706C6174666F726D2F656D6C7A
S11314E069622F696E632F656D5F6770696F2E681F
S11314F000000000040000000200000004000000DE
S1131500030000002F4170706C69636174696F6E31
S1131510732F53696D706C696369747920537475A2
S113152064696F2E6170702F436F6E74656E74738F
S11315302F45636C697073652F646576656C6F7095
S113154065722F73646B732F65787833322F763519
S11315502E302E302E302F2F706C6174666F726DAA
S11315602F656D6C69622F696E632F656D5F636DA6
S1131570752E68002F4170706C69636174696F6EB9
S1131580732F53696D706C69636974792053747532
S113159064696F2E6170702F436F6E74656E74731F
S11315A02F45636C697073652F646576656C6F7025
S11315B065722F73646B732F65787833322F7635A9
S11315C02E302E302E302F706C6174666F726D2F3A
S11315D0656D6C69622F7372632F656D5F636D75E2
S11315E02E6300002F4170706C69636174696F6EC3
S11315F0732F53696D706C696369747920537475C2
S113160064696F2E6170702F436F6E74656E7473AE
S11316102F45636C697073652F646576656C6F70B4
S113162065722F73646B732F65787833322F763538
S11316302E302E302E302F2F706C6174666F726DC9
S11316402F656D6C69622F696E632F656D5F6770BE
S1131650696F2E68000000002F4170706C6963612F
S113166074696F6E732F53696D706C6963697479F3
S11316702053747564696F2E6170702F436F6E749C
S1131680656E74732F45636C697073652F6465763A
S1131690656C6F7065722F73646B732F6578783324
S11316A0322F76352E302E302E302F706C617466CA
S11316B06F726D2F656D6C69622F7372632F656D28
S11316C05F6770696F2E63002F4170706C6963618E
S11316D074696F6E732F53696D706C696369747983
S11316E02053747564696F2E6170702F436F6E742C
S11316F0656E74732F45636C697073652F646576CA
S1131700656C6F7065722F73646B732F65787833B3
S1131710322F76352E302E302E302F706C61746659
S11317206F726D2F656D6C69622F7372632F656DB7
S11317305F73797374656D2E6300430008000020A5
S107174000000000A1
S10B1744F4E9FF7F010000003D
S113174C006CDC02008000000000000000000000BF
S113175C0000000000000000000000000000000079
S113176C00000000000000003A1700000000000018
S113177C0000000000000000000000000000000059
S113178C0000000000000000000000000000000049
S113179C0000000000000000000000000000000039
S11317AC000000000000000001010000DD0000004A
S10717BC0000000025
S90304FDFB
