S014000053544B333730305F626C696E6B2E733337B5
S113000000000220AD010000D9010000D901000068
S1130010D9010000D9010000D9010000D901000074
S1130020D9010000D9010000D9010000D901000064
S1130030D9010000D9010000D9010000D901000054
S1130040D9010000D9010000D9010000D901000044
S1130050D9010000D9010000D9010000B516000043
S1130060D9010000D9010000D9010000D901000024
S1130070D9010000D9010000D9010000D901000014
S1130080D9010000D9010000D9010000D901000004
S1130090D9010000D9010000D9010000D9010000F4
S11300A0D9010000D9010000D9010000D9010000E4
S11300B0D9010000D9010000D9010000D9010000D4
S11300C0D9010000D9010000D9010000D9010000C4
S11300D0D9010000D9010000D901000010B5054C78
S11300E0237833B9044B13B10448AFF300800123E0
S11300F0237010BD7800002000000000B42400002C
S1130100084B10B51BB108480849AFF300800848F4
S1130110036803B910BD074B002BFBD0BDE81040AA
S1130120184700BF00000000B42400007C00002039
S11301307400002000000000154B002B08BF134B77
S11301409D46A3F5803A00218B460F461348144A76
S1130150121A01F0C7FB0F4B002B00D098470E4B2F
S1130160002B00D098470020002104000D000D480A
S1130170002802D00C48AFF3008001F08DFB200072
S1130180290001F02BFB01F073FB00BF0000080005
S113019000000220000000000000000078000020A1
S11301A0AC0000200000000000000000064880476A
S11301B00649074A074B9A42BEBF51F8040B42F85E
S11301C0040BF8E7FFF7B8FF9D030000C02400000C
S11301D00000002078000020FEE700BF294AD36A0F
S11301E003F47053B3F5805F2AD0B3F5005F24D0D5
S11301F0B3F5006F11D0D36803F4E063B3F5007F67
S11302003DD020D9B3F5806F37D0B3F5A06F32D08D
S1130210B3F5407F24D0002301E01B4B1B68194A2F
S11302201A4910685268C0F382300130B3FBF0F011
S113023002F00F03D84008607047154B1B68EEE7C7
S11302404FF40043EBE76BB1B3F5807FE3D1114B7F
S1130250114AD86C114BB0F1985F28BF1346DEE702
S11302600F4BDCE70B4B0F4AD86C0F4BB0F1985F88
S113027028BF1346D3E70D4BD1E70D4BCFE70D4B0A
S1130280CDE700BF00800C4004000020A400002043
S113029000000020B081E00F40B56400C0CF6A00C8
S11302A0809FD500804F120040420F00003FAB01F9
S11302B0406F4001C0D8A70000487047006CDC02C2
S11302C0274AD36A03F47053B3F5805F24D0B3F59F
S11302D0005F1ED0B3F5006F11D0D36803F4E06360
S11302E0B3F5007F39D01AD9B3F5806F33D0B3F5A5
S11302F0A06F2ED0B3F5407F1FD0002001E0194B32
S11303001868174B1B68C3F382330133B0FBF3F057
S11303107047154B1868F4E74FF40040F1E773B1E8
S1130320B3F5807FE9D1114A114BD06C114AB0F179
S1130330985F2CBF18461046E3E70F48E1E70B4AE5
S11303400E4BD06C0E4AB0F1985F2CBF1846104685
S1130350D7E70C48D5E70C48D3E70C48D1E700BFF2
S113036000800C400400002000000020B081E00F59
S113037040B56400C0CF6A00809FD500804F120052
S113038040420F00003FAB01406F4001C0D8A700BE
S1130390014B1868704700BF04000020704700BF7D
S11303A04FF40040704700BF4FF47A70704700BFAD
S11303B0014B1868704700BF00000020FEE700BF33
S11303C06C4B70B59842044602D06B4B98420BD1EB
S11303D004F00F03013B062B00F28380DFE803F0F7
S11303E033734C81815A0A0064484FF4F171FFF76A
S11303F0E5FFEDE7624BDB6A03F46033B3F5803F5E
S11304002BD0B3F5003F00F09880B3F5004F48D0EF
S1130410584B9C427AD0584B9C4240F08580584BB4
S11304209B6AC3F38103022B22D0032B00F091803B
S1130430012B7ED0524B14229B6AD34041D0BDE89D
S11304407040FFF7B1BF4E4BDB6A03F47053B3F552
S1130450805F72D0B3F5005F23D1464B9C4255D0E8
S1130460454B9C42DBD045484FF40371FFF7A6FF90
S1130470BDE87040FFF79CBF414A936A03F00C0348
S1130480082BEAD00C2B0CD0042B56D0936ADB0239
S113049007D4BDE73A4B1B6813F0805301D0002BFF
S11304A0B6D0344B9C4231D0334B9C42B7D0334806
S11304B04FF40371FFF782FF304840F23721FFF712
S11304C07DFF002070BD2E4A936A03F00303022BC4
S11304D0C3D0032BE5D0012B2FD0936ADA03E0D4E9
S11304E096E7244E254840F66A11FFF767FFB442A9
S11304F00CD0214DAC4292D020484FF40371FFF749
S11305005DFFB4420CD0AC42DBD193E71C4B9B6A39
S113051003F00303022BABD0032B1AD0012B08D01A
S1130520174B10229B6A88E714484FF40371FFF7B6
S113053045FFBDE87040FFF733BF0E4B9C42E5D04A
S11305400D4B9C423FF46BAF0C484FF40371FFF723
S113055035FFFFF743FE0B4A0B4B15681B68044637
S11305609D4203D00548D821FFF728FF013524FA1E
S113057005F070BD02001A0003001C00DC2100001D
S113058000800C4078009043A0009043F8B5C0F37D
S11305900313013B0C46062B00F20681DFE813F03F
S11305A0290004010401F4007300CA000700B74BDA
S11305B0984200F04D8103F50433984240F04181A4
S11305C0082900F2D881B24A536DD90740F1F3806B
S11305D0631EB3F5004F80F0BB81B4FA84F4AC4AD7
S11305E0C4F11F04136F23F0300343EA04131367A9
S11305F0F8BD4C1E072C04D9A64840F2E241FFF78F
S1130600DDFEFFF759FE41F67132A34BDD6BDA6371
S11306105B6803F00703042B06D8012202FA03F3F4
S113062013F0130F40F081819C4B984240F2E2801A
S1130630052299494B6823F0070313434B600DB11E
S11306400023CB63924A136823F4E03343EA8434EF
S11306501460FFF7C3FD41F671328F4BDC6BDA6334
S11306605B6803F00703042B00F2AD80012202FA59
S113067003F313F0130F00F0A680884B984240F266
S113068046810422A3E04D1EB5F5007F80F08881E9
S1130690FFF712FE41F671327F4BDE6BDA635B6863
S11306A003F00703042B06D8012202FA03F313F024
S11306B0130F40F03481794B984240F2A380052215
S11306C075494B6823F0070313434B600EB10023B5
S11306D0CB63FFF7F5FD724BB0FBF4F6DB6CC3F3B1
S11306E007434A2B00F09680792B00F09380482B27
S11306F000F0A58067489A21FFF760FE00239E4220
S11307006849694A94BF00230123B5F5004F0B6083
S1130710136004D3654840F21951FFF74FFEB4FA51
S113072084F45B4AC4F11F04536823F00F031C4391
S113073054608EE75E4B984200F0598140F2C680C7
S11307405C4B984200F032815B4B984240F006814A
S1130750082900F28E814E4A536DDF0740F1EA808A
S1130760631EB3F5004F04D3504840F21951FFF70C
S113077025FEB4FA84F4464AC4F11F04936E23F0B0
S1130780030323439366F8BD4D1EB5F5007F80F047
S1130790F880B4FA84F43E4AC4F11F04936823F049
S11307A00F031C439460F8BD3A4840F28151BDE800
S11307B0F840FFF703BE136D5B067FF509AF136DB9
S11307C05B06F8D404E7354B98420BD9052232492D
S11307D04B6823F0070313434B6014B10023CB632E
S11307E0F8BDF8BD354B364A034493428CBF022210
S11307F00322ECE7314B324A034493428CBF02227A
S1130800032216E72D4B2E4A034493428CBF022247
S1130810032255E72B482C4A03698169C06903F018
S11308203F07C0F3031343EA072301F0F0011B4819
S11308300B43B3F5017F2CBF134603465FE7174B09
S11308405DE7144840F27B51BDE8F840FFF7B6BDC0
S1130850082900F28A800E4A536DDD070ED5631E07
S1130860B3F5004F6ED2B4FA84F4094AC4F11F04FC
S1130870136F23F0030323431367F8BD136D580666
S1130880EDD5136D5806F9D4E9E700BF70071600DB
S113089000800C40DC21000000000C400048E8010E
S11308A0B081E00F78009043A00090434C220000F8
S11308B0602614006000260060062A00FFDB0BFFA0
S11308C0FF23F400D0FF0FE000366E01A3F582236E
S11308D0984243D1B1F5004F00F2C580684A536D88
S11308E0DF072BD5631EB3F5004F04D3654840F2F0
S11308F01951FFF763FDB4FA84F4614AC4F11F048B
S1130900936E23F0F00343EA04139366F8BD5E4B41
S11309105E4A034493428CBF0022012257E75C4B9A
S1130920984240F28C800422CAE6594B98427ED900
S113093004227EE6136D5E07FCD411E7136D5E0797
S1130940FCD4CFE74F4840F21951FFF737FD8AE74F
S11309504C4840F21951FFF731FD3EE64D4840F254
S11309605451BDE8F840FFF729BD4A4840F25E51B2
S1130970FFF724FD6FE7474840F26D51FFF71EFD76
S113098021E6444840F2F541FFF718FDB5F5004F64
S1130990FFF4FFAE3B4840F21951FFF70FFDF8E6B4
S11309A03C4840F2FD41FFF709FD71E6A1F1100357
S11309B0702B52D8324A536DD90714D5631EB3F540
S11309C0004F04D32F4840F21951FFF7F7FCB4FA53
S11309D084F42B4AC4F11B04936E23F4405343EA7A
S11309E004339366F8BD136D5B07FCD4E6E7B1F5F9
S11309F0004F2CD8224A536DDD0714D5631EB3F57E
S1130A00004F04D31F4840F21951FFF7D7FCB4FA42
S1130A1084F41B4AC4F11F04936E23F4706343EA05
S1130A2004239366F8BD136D5807FCD4E6E7164B10
S1130A30164A034493428CBF00220122F9E5124B6B
S1130A40124A034493428CBF0022012238E6114823
S1130A5040F22751FFF7B2FCCCE70E4840F2365182
S1130A60FFF7ACFCA6E70B4840F21951FFF7A6FCD0
S1130A7034E7084840F24651FFF7A0FC6BE600BF9C
S1130A8000800C404C220000FFDB0BFFFF23F4002E
S1130A900048E801DC21000000F00F00013808B52F
S1130AA0062852D8DFE800F01424355151460400DA
S1130AB02D4BDB6A03F46033B3F5803F4ED0B3F5BE
S1130AC0003F49D0B3F5004F0CBF0820012008BDFA
S1130AD0254BDB6A03F47053B3F5805F3CD0B3F568
S1130AE0005F3BD0B3F5006F0CBF0420052008BDA8
S1130AF01D4B986A00F0030002282ED003282FD043
S1130B00012829D09B6A13F4803F0CBF01200920DF
S1130B1008BD154A936A03F00C03082B1ED00C2B56
S1130B201ED0042B18D0936A13F4801F0CBF01202D
S1130B30092008BD0C4B1B6813F0805312D0B3F18D
S1130B40805F0CBF0820012008BD084840F66A11E8
S1130B50FFF734FC002008BD032008BD022008BDB7
S1130B60062008BD072008BD00800C40DC210000E1
S1130B7000F47810B0F5B01F08B500F09E8014D8CA
S1130B80B0F5402F00F08B8026D8B0F5003F79D027
S1130B90B0F5802F00F0B780002877D0704840F27D
S1130BA0AA61FFF70BFC002008BDB0F5081F00F098
S1130BB09F8037D8B0F5D01F5FD0B0F5E01F69D063
S1130BC0B0F5C01FEAD16748FFF7FAFB664B1B6F0D
S1130BD0C3F30113D84008BDB0F5801F35D0B0F57C
S1130BE0A01F73D0B0F5602FD8D15F4B5B6903F4BD
S1130BF0E063B3F5007F00F0A58040F28C80B3F58C
S1130C00C06F00F0AB80B3F5E06F00F0A580B3F5E2
S1130C10407F00F08F8052484FF48D71FFF7CEFB78
S1130C20002008BDB0F5201F18D0B0F5281F56D0FD
S1130C30B0F5181FB2D14D48FFF7C2FB4A4B9B6E6B
S1130C40C3F301330433D84008BD4848FFF7B8FB69
S1130C50454B9B6EC3F30313D84008BD4348FFF7CD
S1130C60AFFB414B9A6EDB6FC2F3013203F0070313
S1130C70D0400133B0FBF3F008BD3C48BDE8084068
S1130C80FFF79EBBBDE80840FFF7A8BABDE80840DF
S1130C90FFF716BB3348BDE80840FFF791BB344863
S1130CA0FFF7FAFE0728A0D00828EFD02C4840F21E
S1130CB04311FFF783FB002008BD2A48FFF780FBA0
S1130CC0294B1B6F03F00303D84008BD2748FFF7E7
S1130CD077FB254B9B6EC3F30323D84008BD234801
S1130CE0FFF76EFB204B9B6E03F00303D84008BD57
S1130CF02048FFF7D1FE032814D00828C6D00228C4
S1130D0014D0002008BDFFF7DBFA174B9B6803F0F3
S1130D100F03D84008BDEBB1B3F5807F7FF47BAF00
S1130D20154808BDBDE80840FFF73ABBBDE80840D8
S1130D30FFF73EBB114BDB6CB3F1985F2CBF10483F
S1130D40104808BD0D4BDB6CB3F1985F2CBF0E4807
S1130D500E4808BD0E4808BD0E4808BD0E4808BD23
S1130D60DC21000003001C0000800C4002001A007B
S1130D7006000C0007232200C0D8A700B081E00FB2
S1130D80804F120040420F0040B56400C0CF6A009B
S1130D90809FD500406F4001003FAB01C0F30323A7
S1130DA0013B70B504460D46092B40D8DFE803F03B
S1130DB0383A1B3F3F0C3C3F3F052B49C4F30434F6
S1130DC00C44A400256070BD28490120284AC4F3BE
S1130DD00434536DDB07F3D4136D1842FCD10C4477
S1130DE0A400256070BD2348FFF7C2FE224B0646CF
S1130DF0DB6CC3F307434A2B20D0792B1ED0482B3E
S1130E0030D01E489A21FFF7D9FA002086421C4AA6
S1130E101C4B94BF0020012010601B491860CDE7D3
S1130E201A49CBE71A49C9E71A491020CEE71348F3
S1130E304FF4BD61BDE87040FFF7C0BA1649174BC7
S1130E4008698A69C96900F03F00C1F3031141EAE6
S1130E50002102F0F00212480A43B2F5017F28BFD4
S1130E601846D3E70E48D1E7C003E410C002E410EB
S1130E7000800C4000430200B081E00FDC21000040
S1130E8078009043A00090430002E4104000E41076
S1130E902002E4100003E410D0FF0FE000366E01DE
S1130EA00048E80138B500F00F04631E062B39D85A
S1130EB0DFE803F02A1B1B3838110400032949D04A
S1130EC0082971D002295DD0BDE83840A94840F610
S1130ED02131FFF773BA072936D008294BD1A64A26
S1130EE0136843F08053136021E00139082900F2AC
S1130EF0B981DFE811F0D500E400F200B701B701D1
S1130F008101B701B70139010239072900F2A38130
S1130F10DFE811F052009D01F0004601A101A1019A
S1130F20A1019601934840F62831FFF747FA934A06
S1130F30934B12681B689A4205D0BDE838408D482F
S1130F40D821FFF73BBA38BD8B4A136823F080538E
S1130F501360ECE7884B40218A4A19621368002B1E
S1130F60FCD000F099FA844B60211A465962D36A86
S1130F709903FCD5DBE77F4840F6DD21BDE8384026
S1130F80FFF71CBA7C4B4FF480717F4A19621368D7
S1130F90002BFCD000F080FA774B40211A465962AE
S1130FA0D36AD803FCD5C2E7734B20211A46596291
S1130FB0D36A1B04FCD5BAE7734A04244FF4807344
S1130FC06D490B621368002BFCD000F065FAFFF743
S1130FD073F941F671326D4BDD6BDA635B6803F0D4
S1130FE00703042B00F24581012202FA03F313F0F4
S1130FF0130F00F03E81664B984240F27C8104223C
S113100062494B6823F0070313434B600DB100237F
S1131010CB63594B5F485C62FFF7AAFD5E4B044605
S1131020DB6CC3F307434A2B00F04981792B00F0B2
S11310304681482B00F041814E489A21FFF7BEF9C2
S1131040002084424D4A4E4B94BF00200120106082
S1131050186000F021FAFFF7C1F841F671324B4BEA
S1131060DC6BDA635B6803F00703042B00F2068190
S1131070012202FA03F313F0130F00F0FF80444B34
S1131080984240F23081042240494B6823F0070320
S113109013434B60002C3FF44AAF0023CB6346E775
S11310A000210B460A46022C334800F0FC80826A79
S11310B022F4801323F00C030B43836237E72E4B97
S11310C04FF48071304A19621368002BFCD000F091
S11310D0E3F9082100230222E5E7274B4021294AAE
S11310E019621368002BFCD000F0D6F90421002308
S11310F00122D8E7284BDB6CC3F307434A2B00F0EB
S11311000581792B00F00281482B00F0FC801948FE
S11311109A21FFF753F9002318461F4AD26CC2F3F1
S113112007424A2A00F04581792A00F04281482A80
S113113004D010489A21FFF741F90123104A0F49BE
S113114002240B601360FFF723F90B4A104B9842FB
S1131150136896BF23F0600343F0600343F0200359
S113116013600E4A04232BE74FF480114FF48033AD
S1131170002298E7DC21000000800C4078009043B6
S1131180A00090439C059043A405904300000C40AC
S11311900048E80100430200B081E00F8C05904351
S11311A08D4BDB6CC3F307434A2B00F0EE80792BA5
S11311B000F0EB80482B00F0E58088489A21FFF787
S11311C0FDF800221046844BDB6CC3F307434A2B23
S11311D000F0C680792B00F0C380482B04D07F48F0
S11311E09A21FFF7EBF801227D4B7E4901241A6016
S11311F00A6023467C4AE3E6FEF7F0FF764B054699
S1131200DB6CC3F307434A2B00F09680792B00F084
S11312109380482B00F08E8070489A21FFF7CEF817
S1131220002085426E496F4B704A94BF0020012014
S11312300125086018600C2115600023032232E7A1
S1131240664840F6F511BDE83840FFF7B7B8684A7C
S113125003244023B4E6614840F6FA11BDE838405F
S1131260FFF7ACB85D4840F67D21BDE83840FFF794
S1131270A5B8604B984206D90522C1E65D4B984259
S113128009D9052200E75C4B5C4A034493428CBFB6
S113129002220322B4E6584B584A034493428CBFBB
S11312A002220322F0E642EA0301826A22F4803336
S11312B023F003030B43836239E64E48C1E65049E9
S11312C0504B08698A69C96900F03F00C1F30311F2
S11312D041EA002102F0F00246480A43B2F5017FD8
S11312E028BF1846ADE6444B444A034493428CBF9E
S11312F000220122C8E6404B404A034493428CBF7B
S1131300002201227CE60123184606E73C4A01201C
S113131011699369D26901F03F01C2F3031242EAF1
S1131320012203F0F0031343B3F5017F2CBF002324
S11313300123F2E62F4874E73149324B08698A6980
S1131340C96900F03F00C1F3031141EA002102F032
S1131350F00228480A43B2F5017F28BF184660E727
S113136027490C698B69C96904F03F04C1F303116F
S113137041EA042103F0F0030B43B3F5017F28BFD6
S1131380024631E7012210461DE71D4A012011697A
S11313909369D26901F03F01C2F3031242EA0122C8
S11313A003F0F0031A43B2F5017F2CBF002201229F
S11313B009E713490C698A69C96904F03F04C1F358
S11313C0031141EA042102F0F0020A43B2F5017F5D
S11313D028BF0346B2E600BFB081E00FDC21000065
S11313E078009043A00090438405904310089043F4
S11313F09C0590430048E801FFDB0BFFFF23F4004A
S1131400D0FF0FE000366E0110B404282ED8DFE8B8
S113141000F01F25291B030018482023102469B15C
S1131420174B1C621AB95DF8044B00F035B8036819
S1131430002BF8D10368002BF9D0F4E7104A5DF8CB
S1131440044B136200F028B80E4802230124E6E797
S11314500D484FF400734FF48074E0E70B48802389
S11314604024DCE70A4808230424D8E7094840F666
S1131470DF515DF8044BFEF7A1BF00BF9405904314
S113148000800C4084059043A40590439C05904340
S11314908C059043DC210000024A034BD26A1A6097
S11314A0704700BF00800C409400002004282DE900
S11314B0F04104460D461746984631D9052800F0F8
S11314C0AB8058484FF48971FEF778FF7FBBE60084
S11314D031198900072D01F1804142D801F5C0413D
S11314E048684FEA850E0F2303FA0EF320EA03023D
S11314F007FA0EF313434B6087B9B8F1000F50D1CC
S1131500042C60D84FF6FF732B41DB075DD53444C0
S1131510454BA40001222344AA405A60BDE8F0814F
S11315204FF6FF732B41DE07CBD5002FCFD0B8F198
S1131530000F26D0042C60D84FF6FF732B41D80738
S11315404FD5E60033199B0003F180430122311982
S113155003F5C043AA408900072D1A6101F18041B7
S1131560BCD905F1804301F5C041083B88689B0064
S11315700F229A4020EA020207FA03F313438B6016
S1131580BAE7042C3ED84FF6FF732B41D90722D576
S1131590E6003119244B890001220B44AA405A6009
S11315A096E7042C33D84FF6FF732B41DA071ED588
S11315B03444A40004F18044012304F5C044AB4046
S11315C02361BDE8F081052C29D0184840F2C621DA
S11315D0FEF7F4FE9BE7154840F2C621FEF7EEFE47
S11315E0D6E7124840F2F321FEF7E8FEA9E70F48D8
S11315F040F2F321FEF7E2FEDAE7052CF1D141F6E1
S1131600FF739BE7052CE6D141F6FF73BDE7052C7C
S1131610EDD141F6FF73C8E741F6FF7382E741F667
S1131620FF7371E7BC220000106000402C2300000F
S113163010B50446B0B10E4A5169136901F00F01A7
S1131640C3F3811343EA8103A370136903F03F03D7
S113165063709169D36901F0F002C3F30313134378
S1131660237010BD03483E21FEF7A8FEE3E700BF48
S1131670D0FF0FE0A0230000101E1ADD70B40E1876
S11316804FF0604401E0B14212D0D4F8803E11F82A
S1131690015BDA07F7D5D4F8003EDB07F3D52368FE
S11316A01BB900BF2368002BFBD0B1422570ECD1DD
S11316B070BC7047024B4FF400721A62704700BF4F
S11316C00020004029492A4B0A46486C2DE9F0477E
S11316D040F400504864D3F82001102440F0040082
S11316E0C3F82001D3F8200120F44070C3F820018E
S11316F0D3F8B80020F47060C3F8B800D3F8B80089
S113170040F48060C3F8B8000C62D36A9B06FCD531
S1131710184C194AE068DFF868A0DFF868E0DFF8E1
S113172068C0164F4FF06043002140F080704FF0C6
S113173002094FF00F084FF480760125E060C3F8EA
S1131740B0AFC3F8001EC3F8801EC2F8F090C2F810
S11317501080C3F8401ECEF800C0C3F8807EC2F8E3
S11317600463C3F8005EBDE8F08700BF00800C404E
S113177000600040F0ED00E0000004E00D00010016
S113178055CEACC5001000E0FE03004010B50121A9
S11317900A46094C0220FFF737FE11200421FFF707
S11317A081FB20460121FEF7F1FE2046BDE81040F2
S11317B00121FFF7F3BA00BF4081040010B50648C9
S11317C00121FFF7EBFABDE81040002002210422BA
S11317D00123FFF76BBE00BF00D2040000B583B045
S11317E0FFF7ECFF0D4B01A81C68FFF721FFB4F1D4
S11317F0805F03D39DF80430032B07D0FFF7C6FFA7
S1131800FFF760FF064800F0EDF8FEE7054A1368AD
S113181023F0500343F010031360EFE7FC81E00F63
S113182044240000C0800C4008B901207047034BD9
S113183009221A604FF0FF30704700BFA800002053
S113184000207047022804D9034B09221A600020A3
S113185070470120704700BFA80000204FF40053D8
S11318604B600020704700BF4FF0FF30704700BF4F
S113187008B5074B044613B10021AFF30080054BB4
S11318801868836A03B19847204600F099FC00BFAA
S113189000000000502400000E4B70B51E460E4C94
S11318A00025E41AA410A54204D056F82530984720
S11318B00135F8E700F086FC084B094C1E46E41A93
S11318C0A4100025A54204D056F8253098470135C8
S11318D0F8E770BD6C0000206C0000206C00002054
S11318E07000002003460244934202D003F8011B17
S11318F0FAE7704770B50E46054618B183690BB90F
S113190000F026FAAB69AC6813B9284600F020FA57
S1131910314B9C4201D16C6808E0304B9C4201D1B0
S1131920AC6803E02E4B9C4208BFEC68A3891907FE
S113193001D5236983B92846214600F0AFF858B190
S11319404FF0FF3070BD002B0EDB236816F8012C1E
S11319501A70236801332360A36816F8012B013B36
S1131960A360002AEFD116E0A269934209DB236841
S113197016F8012C1A70236819780A29EAD1284626
S113198002E0284616F8011C224600F033F8421CF7
S113199050425041D3E7002B15DAA269934208DB89
S11319A023680A221A702368197891420FD12846B5
S11319B001E028460A21224600F01CF8431C584244
S11319C0584130B1BCE723680A221A7023680133F6
S11319D023600A2070BD00BF54240000742400005A
S11319E094240000024B01461868FFF783BF00BF30
S11319F06800002070B50D461446064618B1836988
S1131A000BB900F0A5F9224B9C4201D1746808E09F
S1131A10204B9C4201D1B46803E01F4B9C4208BF99
S1131A20F468A369A360A3891A0709D523693BB1A4
S1131A3023682069EDB2181A636998420FDB08E045
S1131A403046214600F02AF80028F1D04FF0FF304C
S1131A5070BD3046214600F011F90028F6D1A36884
S1131A600130013BA36023685A1C22601D70636926
S1131A70984204D0A389DB0707D50A2D05D1304647
S1131A80214600F0FBF80028E0D1284670BD00BFD5
S1131A90542400007424000094240000314B70B5D9
S1131AA01D6806460C4625B1AB6913B9284600F0FB
S1131AB04FF92D4B9C4201D16C6808E02B4B9C42A2
S1131AC001D1AC6803E02A4B9C4208BFEC68A389AF
S1131AD09AB211071DD4D50602D40922326038E027
S1131AE0500712D5616B41B104F14403994202D00D
S1131AF0304600F001FA00236363A38923F0240332
S1131B00A3810023636023692360A38943F008034E
S1131B10A38123694BB9A38903F42073B3F5007F30
S1131B2003D03046214600F09BF9A38913F001024B
S1131B3005D00022A26062695242A26103E09907C3
S1131B4058BF6269A26022694AB903F0800080B27A
S1131B5030B143F04003A3814FF0FF3070BD00204B
S1131B6070BD00BF680000205424000074240000ED
S1131B70942400008A892DE9F041054610070C469B
S1131B8057D44B68002B02DC0B6C002B18DDE66A83
S1131B90B6B102F48052002392B22F682B600AB1CE
S1131BA0626D10E0216A28460123B047411C0246B9
S1131BB009D12B683BB11D2B01D0162B46D12F60C8
S1131BC00020BDE8F081A3895B0705D56368D21ABC
S1131BD0636B0BB1236CD21AE66A00232846216A90
S1131BE0B047461CA38905D12A681AB11D2A01D021
S1131BF0162A19D1002262602269D904226004D510
S1131C00421C01D12B6803B96065616B2F60002908
S1131C10D6D004F14403994202D0284600F06CF96E
S1131C2000206063BDE8F08143F04003A381BDE878
S1131C30F0810F69002FC3D093070E680CBF4B6966
S1131C400023C7EB06080F608B6012E0A3894FF0F6
S1131C50FF3043F04003A381BDE8F0812846216AA8
S1131C603A464346A66AB0470028EFDD0744C0EB76
S1131C700808B8F1000FF1DCA2E7000038B50B69E1
S1131C8005460C46DBB118B183690BB900F060F866
S1131C900C4B9C4201D16C6808E00B4B9C4201D177
S1131CA0AC6803E0094B9C4208BFEC68B4F90C3003
S1131CB02BB128462146BDE83840FFF75BBF002022
S1131CC038BD00BF54240000742400009424000094
S1131CD0014900F0A7B800BF7D1C000010B5044600
S1131CE0002303604360836081814366C281036192
S1131CF04361836119465C300822FFF7F3FD054B0D
S1131D0024626362044BA362044BE362044B2363C7
S1131D1010BD00BF4D2000006F200000A720000070
S1131D20CB20000070B568234D1E5D430E4605F1BF
S1131D30740100F025F9044640B1002180E8420016
S1131D400C30A06005F16802FFF7CCFD204670BDA1
S1131D50836910B5044633BB8364C3640365124BC3
S1131D60124A1B688262984204BF0123836100F017
S1131D701FF86060204600F01BF8A060204600F0C9
S1131D8017F80421E06000226068FFF7A7FFA0684D
S1131D9009210122FFF7A2FFE06812210222FFF7C6
S1131DA09DFF0123A36110BD50240000D11C00003D
S1131DB0F8B51B4B07461E68B36913B93046FFF7E5
S1131DC0C7FF4836B4687368013B04D4B4F90C50B7
S1131DD075B16834F8E733682BB938460421FFF746
S1131DE0A1FF306008B13668ECE70C233B60F8BD16
S1131DF04FF6FF73E3810123A38165662560A56027
S1131E00656025616561A56104F15C0029460822CD
S1131E10FFF768FD6563A563A564E5642046F8BD26
S1131E20502400002DE9F8438046894600F1480417
S1131E30002694B1A5686768013F0CD4AB89012BD7
S1131E4007D9B5F90E30013303D040462946C847B7
S1131E5006436835F0E72468EBE73046BDE8F883CD
S1131E60F0B58B8991B09D0706460C4625D4B1F98F
S1131E700E10002908DAA389002513F0800F14BF7F
S1131E8040274FF480670DE001AA00F045F90028CF
S1131E90F1DB029D4FF4806705F47045A5F5005110
S1131EA04D424D413046394600F06AF860B9A38985
S1131EB09A051DD443F00203A38104F14703236070
S1131EC023610123636113E00A4BB362A389206099
S1131ED043F08003A381206167614DB13046B4F9BA
S1131EE00E1000F02BF918B1A38943F00103A3816C
S1131EF011B0F0BDD11C000030B500293CD051F820
S1131F00042C0B1F1D49002AB8BF9B180A680C46F5
S1131F1012B95A600B6030BD93420DD2196858183B
S1131F20904201BF5A5852181A60426823605A609E
S1131F3030BD994203D80A4651680029F9D1146882
S1131F4015199D420AD11B682344D0188842136096
S1131F5012D10868034413604B680CE002D90C23C7
S1131F60036030BD1C681819884201BF08684968BD
S1131F70001918605960536030BD00BF9C000020F8
S1131F8070B5CC1C24F0030408340C2C38BF0C248A
S1131F90002C064603DA0C233360002070BD8C420B
S1131FA0F9D3204A136810461946A1B10A68121BD6
S1131FB00ED40B2A03D90A608B188C501FE08B4275
S1131FC00BBF5A684A6802605A6018BF0B4616E095
S1131FD00B464968E9E7144D2B681BB9304600F0FD
S1131FE025F828603046214600F020F8421C0346BC
S1131FF0D1D0C51C25F0030585420AD11C6003F12C
S11320000B001A1D20F00700821A0AD05142995081
S113201070BD3046E91A00F009F80130BBD02B46F8
S1132020ECE770BD9C0000209800002038B5064CF9
S1132030002305460846236000F0B4F8431C02D18F
S1132040236803B12B6038BDA800002010B50C46EE
S1132050B1F90E1000F094F80028ABBF636DA389AA
S11320601B1823F48053ACBF6365A38110BD2DE915
S1132070F0411D468B890746DB050C46164605D5FF
S1132080B1F90E100022022300F068F8A389384643
S113209023F48053A381B4F90E1032462B46BDE8D5
S11320A0F04100F017B810B50C46B1F90E1000F06D
S11320B055F8431CA38915BF606523F4805343F48A
S11320C08053A38118BFA38110BDB1F90E1000F095
S11320D013B8000038B5074C0546002020600846B8
S11320E011461A46FFF7C8FA431C02D1236803B10C
S11320F02B6038BDA800002038B5064C00230546E7
S113210008462360FFF7B0FB431C02D1236803B1E8
S11321102B6038BDA800002038B5074C00230546C5
S1132120084611462360FFF799FB431C02D123683C
S113213003B12B6038BD00BFA800002038B5064CA1
S11321400023054608462360FFF77CFB431C02D1AD
S1132150236803B12B6038BDA800002038B5074CB4
S1132160054600202060084611461A46FFF768FB22
S1132170431C02D1236803B12B6038BDA8000020A2
S113218038B5074C054600202060084611461A461B
S1132190FFF74AFB431C02D1236803B12B6038BD0F
S11321A0A8000020044A05491368002B08BF0B4609
S11321B01844106018467047A0000020B0000020AA
S11321C0FEE700BFF8B500BFF8BC08BC9E467047E8
S11321D0F8B500BFF8BC08BC9E4670472F4170702C
S11321E06C69636174696F6E732F53696D706C6988
S11321F0636974792053747564696F2E6170702FEC
S1132200436F6E74656E74732F45636C6970736588
S11322102F646576656C6F7065722F73646B732FB2
S113222065787833322F76352E302E302E302F705D
S11322306C6174666F726D2F656D6C69622F737259
S1132240632F656D5F636D752E6300002F417070A1
S11322506C69636174696F6E732F53696D706C6917
S1132260636974792053747564696F2E6170702F7B
S1132270436F6E74656E74732F45636C6970736518
S11322802F646576656C6F7065722F73646B732F42
S113229065787833322F76352E302E302E302F2F2E
S11322A0706C6174666F726D2F656D6C69622F69F5
S11322B06E632F656D5F636D752E68002F417070BE
S11322C06C69636174696F6E732F53696D706C69A7
S11322D0636974792053747564696F2E6170702F0B
S11322E0436F6E74656E74732F45636C69707365A8
S11322F02F646576656C6F7065722F73646B732FD2
S113230065787833322F76352E302E302E302F707C
S11323106C6174666F726D2F656D6C69622F737278
S1132320632F656D5F6770696F2E63002F41707056
S11323306C69636174696F6E732F53696D706C6936
S1132340636974792053747564696F2E6170702F9A
S1132350436F6E74656E74732F45636C6970736537
S11323602F646576656C6F7065722F73646B732F61
S113237065787833322F76352E302E302E302F2F4D
S1132380706C6174666F726D2F656D6C69622F6914
S11323906E632F656D5F6770696F2E6800000000C3
S11323A02F4170706C69636174696F6E732F536928
S11323B06D706C69636974792053747564696F2EE8
S11323C06170702F436F6E74656E74732F45636C08
S11323D0697073652F646576656C6F7065722F73B1
S11323E0646B732F65787833322F76352E302E3028
S11323F02E302F706C6174666F726D2F656D6C6911
S1132400622F7372632F656D5F73797374656D2EBC
S113241063000000256400004552524F5221000021
S11324205072696E74696E672041727261792061BD
S113243072723A207B00000025642C20000000000A
S11324407D3B0000535441525400000043000000FF
S11324500800002000000000000000000000000050
S11324600000000000000000000000000000000068
S11324700000000000000000000000000000000058
S11324800000000000000000000000000000000048
S11324900000000000000000000000000000000038
S11324A00000000000000000000000000000000028
S10B24B0000000000000000020
S10B24B880DCFF7F010000003D
S11324C000800000006CDC020000000054240000C6
S11324D074240000942400000000000000000000A8
S11324E000000000000000004C2400000000000078
S11324F000000000000000000000000000000000D8
S113250000000000000000000000000000000000C7
S113251000000000000000000000000000000000B7
S1132520000000000000000008000020010100007D
S10B2530DD00000000000000C2
S90301AD4E
