S01D00005461626C655F54656E6E69735F446574656374696F6E2E73333721
S113000000000220AD010000D9010000D901000068
S1130010D9010000D9010000D9010000D901000074
S1130020D9010000D9010000D9010000D901000064
S1130030D9010000D9010000D9010000D901000054
S11300404D170000D9010000D9010000D9010000BA
S1130050D9010000D9010000D9010000CD3300000E
S1130060D9010000D9010000D9010000D901000024
S1130070D9010000D9010000D9010000D901000014
S1130080D9010000D9010000D9010000D901000004
S1130090D9010000D9010000D9010000D9010000F4
S11300A0D9010000D9010000D9010000D9010000E4
S11300B0D9010000D9010000D9010000D9010000D4
S11300C0D9010000D9010000D9010000D9010000C4
S11300D0D9010000D9010000D901000010B5054C78
S11300E0237833B9044B13B10448AFF300800123E0
S11300F0237010BD0001002000000000F462000025
S1130100084B10B51BB108480849AFF300800848F4
S1130110036803B910BD074B002BFBD0BDE81040AA
S1130120184700BF00000000F46200000401002032
S11301307800002000000000154B002B08BF134B73
S11301409D46A3F5803A00218B460F461348144A76
S1130150121A04F055FD0F4B002B00D098470E4B9C
S1130160002B00D098470020002104000D000D480A
S1130170002802D00C48AFF3008004F00BFD2000EF
S1130180290003F06DFD04F0F1FC00BF000008003D
S11301900000022000000000000000000001002018
S11301A0CC23002000000000000000000648804727
S11301B00649074A074B9A42BEBF51F8040B42F85E
S11301C0040BF8E7FFF7B8FF9D030000006300008D
S11301D0000000207C000020FEE700BF294AD36A0B
S11301E003F47053B3F5805F2AD0B3F5005F24D0D5
S11301F0B3F5006F11D0D36803F4E063B3F5007F67
S11302003DD020D9B3F5806F37D0B3F5A06F32D08D
S1130210B3F5407F24D0002301E01B4B1B68194A2F
S11302201A4910685268C0F382300130B3FBF0F011
S113023002F00F03D84008607047154B1B68EEE7C7
S11302404FF40043EBE76BB1B3F5807FE3D1114B7F
S1130250114AD86C114BB0F1985F28BF1346DEE702
S11302600F4BDCE70B4B0F4AD86C0F4BB0F1985F88
S113027028BF1346D3E70D4BD1E70D4BCFE70D4B0A
S1130280CDE700BF00800C40040000205C0100208A
S113029000000020B081E00F40B56400C0CF6A00C8
S11302A0809FD500804F120040420F00003FAB01F9
S11302B0406F4001C0D8A70000487047006CDC02C2
S11302C0274AD36A03F47053B3F5805F24D0B3F59F
S11302D0005F1ED0B3F5006F11D0D36803F4E06360
S11302E0B3F5007F39D01AD9B3F5806F33D0B3F5A5
S11302F0A06F2ED0B3F5407F1FD0002001E0194B32
S11303001868174B1B68C3F382330133B0FBF3F057
S11303107047154B1868F4E74FF40040F1E773B1E8
S1130320B3F5807FE9D1114A114BD06C114AB0F179
S1130330985F2CBF18461046E3E70F48E1E70B4AE5
S11303400E4BD06C0E4AB0F1985F2CBF1846104685
S1130350D7E70C48D5E70C48D3E70C48D1E700BFF2
S113036000800C400400002000000020B081E00F59
S113037040B56400C0CF6A00809FD500804F120052
S113038040420F00003FAB01406F4001C0D8A700BE
S1130390014B1868704700BF04000020704700BF7D
S11303A04FF40040704700BF4FF47A70704700BFAD
S11303B0014B1868704700BF0000002070B52F4B38
S11303C00C46984205460E7904D02D484FF4BC7172
S11303D000F04EF92B480EBB00F024FD2A4B2B4AAB
S11303E00344A2FB0323DB0D03D0013B1B0203F4F4
S11303F0FE460A236B606078E27821780001A378D6
S113040040EA016112040B4302F4F81261791343C8
S1130410334309B143F008032B6070BD00F002FDC3
S1130420194B1A4A0344A2FB0323DB0D03D0013BFF
S1130430DBB29E4213D3134800F0F4FC144B00F5D6
S1130440F9407F30A3FB0030C00A1CBF00F1FF302D
S1130450C0B2864209D8360206F4FE46C9E7084807
S11304604FF4C37100F004F9E5E7054840F2871141
S1130470360200F0FDF806F4FE46BAE7002000401C
S1130480D0590000408104003F5DC600A5E830A5B6
S1130490D34D6210F8B5384B054698420C4604D04B
S11304A0364840F2CA2100F0E3F808236B60696B18
S11304B0A67821F0FE4121F4FE01062E59D8DFE88A
S11304C006F02E38434D585804002D4BD86800F0E0
S11304D07F000004227894F801C06768E37812076B
S11304E094F809E0014342EA0C5247EA03136963B2
S11304F01343BEF1000F01D043F08073A27A0AB116
S113050043F00403227A0AB143F00203E27A0AB107
S113051043F0010347EA064633432B61F8BD184B09
S113052058685A6800F4FE4302F07F001843000440
S1130530D0E7134B58685B68C0F30660C3F3064307
S113054043EA00200004C5E70D4B98689A6800F45C
S1130550FE4302F07F0018430004BBE7084B986891
S11305609A68C0F30660C2F3064242EA002000041F
S1130570B0E70020AEE700BF00200040D0590000E3
S1130580B081E00F38B50F4B054698420ED8B0F550
S1130590FA4F14D247F6FF444FF4FA4551B1081903
S11305A0B0FBF5F008B10138C0B238BD1D46064CA9
S11305B00029F4D1054800F035FC0146EFE7441E5C
S11305C0ECE700BF405DC6003F5DC600408104000B
S11305D040F2033140F24772002330B40A244FF44E
S11305E0F8154460C360124C036105604361016205
S11305F0C263436B616823F4FE43626801F4FE4105
S113060023F07F030B4302F07F0213434363436BE6
S11306106168626823F0FE4301F4FE4102F07F0248
S113062023F4FE030A4343EA0243436330BC7047A6
S1130630B081E00F08B520B10A4B984207D91F20BA
S113064008BD094800F0EEFB0028F5D108BD074BB2
S113065000F5742000F23F20A3FB0030800C013829
S1130660C0B208BD0048E8014081040083DE1B439A
S1130670FEE700BF6C4B70B59842044602D06B4B4A
S113068098420BD104F00F03013B062B00F2838048
S1130690DFE803F033734C81815A0A0064484FF455
S11306A0F171FFF7E5FFEDE7624BDB6A03F46033BA
S11306B0B3F5803F2BD0B3F5003F00F09880B3F53D
S11306C0004F48D0584B9C427AD0584B9C4240F043
S11306D08580584B9B6AC3F38103022B22D0032BE2
S11306E000F09180012B7ED0524B14229B6AD340A0
S11306F041D0BDE87040FFF757BE4E4BDB6A03F4B0
S11307007053B3F5805F72D0B3F5005F23D1464BCD
S11307109C4255D0454B9C42DBD045484FF4037175
S1130720FFF7A6FFBDE87040FFF742BE414A936A57
S113073003F00C03082BEAD00C2B0CD0042B56D05E
S1130740936ADB0207D4BDE73A4B1B6813F080536E
S113075001D0002BB6D0344B9C4231D0334B9C4259
S1130760B7D033484FF40371FFF782FF304840F2AB
S11307703721FFF77DFF002070BD2E4A936A03F0F6
S11307800303022BC3D0032BE5D0012B2FD0936A94
S1130790DA03E0D496E7244E254840F66A11FFF7C1
S11307A067FFB4420CD0214DAC4292D020484FF4A4
S11307B00371FFF75DFFB4420CD0AC42DBD193E789
S11307C01C4B9B6A03F00303022BABD0032B1AD000
S11307D0012B08D0174B10229B6A88E714484FF46A
S11307E00371FFF745FFBDE87040FFF7D9BD0E4B1D
S11307F09C42E5D00D4B9C423FF46BAF0C484FF448
S11308000371FFF735FFFFF7E9FC0B4A0B4B156843
S11308101B6804469D4203D00548D821FFF728FFF2
S1130820013524FA05F070BD02001A0003001C0013
S1130830E459000000800C4078009043A0009043ED
S1130840F8B5C0F30313013B0C46062B00F20681F6
S1130850DFE813F0290004010401F4007300CA0066
S11308600700B74B984200F04D8103F504339842DA
S113087040F04181082900F2D881B24A536DD9076A
S113088040F1F380631EB3F5004F80F0BB81B4FAEE
S113089084F4AC4AC4F11F04136F23F0300343EA19
S11308A004131367F8BD4C1E072C04D9A64840F264
S11308B0E241FFF7DDFEFFF7FFFC41F67132A34B87
S11308C0DD6BDA635B6803F00703042B06D80122AF
S11308D002FA03F313F0130F40F081819C4B98420A
S11308E040F2E280052299494B6823F00703134341
S11308F04B600DB10023CB63924A136823F4E033B9
S113090043EA84341460FFF769FC41F671328F4B7B
S1130910DC6BDA635B6803F00703042B00F2AD8041
S1130920012202FA03F313F0130F00F0A680884BA0
S1130930984240F246810422A3E04D1EB5F5007FA3
S113094080F08881FFF7B8FC41F671327F4BDE6B93
S1130950DA635B6803F00703042B06D8012202FA6A
S113096003F313F0130F40F03481794B984240F2B3
S1130970A380052275494B6823F0070313434B609A
S11309800EB10023CB63FFF79BFC724BB0FBF4F674
S1130990DB6CC3F307434A2B00F09680792B00F0FD
S11309A09380482B00F0A58067489A21FFF760FEEA
S11309B000239E426849694A94BF00230123B5F588
S11309C0004F0B60136004D3654840F21951FFF7E0
S11309D04FFEB4FA84F45B4AC4F11F04536823F055
S11309E00F031C4354608EE75E4B984200F059811C
S11309F040F2C6805C4B984200F032815B4B9842D7
S1130A0040F00681082900F28E814E4A536DDF07BB
S1130A1040F1EA80631EB3F5004F04D3504840F21E
S1130A201951FFF725FEB4FA84F4464AC4F11F04B1
S1130A30936E23F0030323439366F8BD4D1EB5F56F
S1130A40007F80F0F880B4FA84F43E4AC4F11F04B5
S1130A50936823F00F031C439460F8BD3A4840F2B6
S1130A608151BDE8F840FFF703BE136D5B067FF5C7
S1130A7009AF136D5B06F8D404E7354B98420BD9E4
S1130A80052232494B6823F0070313434B6014B12A
S1130A900023CB63F8BDF8BD354B364A034493427B
S1130AA08CBF02220322ECE7314B324A03449342C7
S1130AB08CBF0222032216E72D4B2E4A0344934295
S1130AC08CBF0222032255E72B482C4A0369816913
S1130AD0C06903F03F07C0F3031343EA072301F09F
S1130AE0F0011B480B43B3F5017F2CBF13460346AB
S1130AF05FE7174B5DE7144840F27B51BDE8F840CF
S1130B00FFF7B6BD082900F28A800E4A536DDD074F
S1130B100ED5631EB3F5004F6ED2B4FA84F4094ABD
S1130B20C4F11F04136F23F0030323431367F8BDB9
S1130B30136D5806EDD5136D5806F9D4E9E700BFD7
S1130B407007160000800C40E459000000000C40BF
S1130B500048E801B081E00F78009043A000904382
S1130B60545A0000602614006000260060062A0023
S1130B70FFDB0BFFFF23F400D0FF0FE000366E0114
S1130B80A3F58223984243D1B1F5004F00F2C5800A
S1130B90684A536DDF072BD5631EB3F5004F04D3AA
S1130BA0654840F21951FFF763FDB4FA84F4614AD1
S1130BB0C4F11F04936E23F0F00343EA0413936615
S1130BC0F8BD5E4B5E4A034493428CBF002201226F
S1130BD057E75C4B984240F28C800422CAE6594B9A
S1130BE098427ED904227EE6136D5E07FCD411E799
S1130BF0136D5E07FCD4CFE74F4840F21951FFF75D
S1130C0037FD8AE74C4840F21951FFF731FD3EE6C3
S1130C104D4840F25451BDE8F840FFF729BD4A4819
S1130C2040F25E51FFF724FD6FE7474840F26D51F3
S1130C30FFF71EFD21E6444840F2F541FFF718FD99
S1130C40B5F5004FFFF4FFAE3B4840F21951FFF7F2
S1130C500FFDF8E63C4840F2FD41FFF709FD71E65F
S1130C60A1F11003702B52D8324A536DD90714D511
S1130C70631EB3F5004F04D32F4840F21951FFF718
S1130C80F7FCB4FA84F42B4AC4F11B04936E23F4E6
S1130C90405343EA04339366F8BD136D5B07FCD4F9
S1130CA0E6E7B1F5004F2CD8224A536DDD0714D581
S1130CB0631EB3F5004F04D31F4840F21951FFF7E8
S1130CC0D7FCB4FA84F41B4AC4F11F04936E23F4D2
S1130CD0706343EA04239366F8BD136D5807FCD48C
S1130CE0E6E7164B164A034493428CBF00220122C6
S1130CF0F9E5124B124A034493428CBF00220122AD
S1130D0038E6114840F22751FFF7B2FCCCE70E4811
S1130D1040F23651FFF7ACFCA6E70B4840F21951FC
S1130D20FFF7A6FC34E7084840F24651FFF7A0FC61
S1130D306BE600BF00800C40545A0000FFDB0BFF41
S1130D40FF23F4000048E801E459000000F00F001C
S1130D50013808B5062852D8DFE800F014243551CC
S1130D60514604002D4BDB6A03F46033B3F5803F36
S1130D704ED0B3F5003F49D0B3F5004F0CBF082067
S1130D80012008BD254BDB6A03F47053B3F5805F83
S1130D903CD0B3F5005F3BD0B3F5006F0CBF04202B
S1130DA0052008BD1D4B986A00F0030002282ED0D0
S1130DB003282FD0012829D09B6A13F4803F0CBF4D
S1130DC00120092008BD154A936A03F00C03082B7F
S1130DD01ED00C2B1ED0042B18D0936A13F4801F42
S1130DE00CBF0120092008BD0C4B1B6813F0805375
S1130DF012D0B3F1805F0CBF0820012008BD084861
S1130E0040F66A11FFF734FC002008BD032008BD3A
S1130E10022008BD062008BD072008BD00800C4044
S1130E20E459000000F47810B0F5B01F08B500F0E4
S1130E309E8014D8B0F5402F00F08B8026D8B0F5F2
S1130E40003F79D0B0F5802F00F0B780002877D02C
S1130E50704840F2AA61FFF70BFC002008BDB0F512
S1130E60081F00F09F8037D8B0F5D01F5FD0B0F5D1
S1130E70E01F69D0B0F5C01FEAD16748FFF7FAFB5D
S1130E80664B1B6FC3F30113D84008BDB0F5801F38
S1130E9035D0B0F5A01F73D0B0F5602FD8D15F4B1B
S1130EA05B6903F4E063B3F5007F00F0A58040F2D2
S1130EB08C80B3F5C06F00F0AB80B3F5E06F00F049
S1130EC0A580B3F5407F00F08F8052484FF48D71B8
S1130ED0FFF7CEFB002008BDB0F5201F18D0B0F5F9
S1130EE0281F56D0B0F5181FB2D14D48FFF7C2FBEA
S1130EF04A4B9B6EC3F301330433D84008BD4848C2
S1130F00FFF7B8FB454B9B6EC3F30313D84008BDF2
S1130F104348FFF7AFFB414B9A6EDB6FC2F30132DC
S1130F2003F00703D0400133B0FBF3F008BD3C48A5
S1130F30BDE80840FFF79EBBBDE80840FFF74EB987
S1130F40BDE80840FFF7BCB93348BDE80840FFF7E7
S1130F5091BB3448FFF7FAFE0728A0D00828EFD049
S1130F602C4840F24311FFF783FB002008BD2A48B8
S1130F70FFF780FB294B1B6F03F00303D84008BD28
S1130F802748FFF777FB254B9B6EC3F30323D84019
S1130F9008BD2348FFF76EFB204B9B6E03F0030351
S1130FA0D84008BD2048FFF7D1FE032814D00828F4
S1130FB0C6D0022814D0002008BDFFF781F9174BD2
S1130FC09B6803F00F03D84008BDEBB1B3F5807FF5
S1130FD07FF47BAF154808BDBDE80840FFF7E0B9D2
S1130FE0BDE80840FFF7E4B9114BDB6CB3F1985F3F
S1130FF02CBF1048104808BD0D4BDB6CB3F1985F53
S11310002CBF0E480E4808BD0E4808BD0E4808BD4A
S11310100E4808BDE459000003001C0000800C4089
S113102002001A0006000C0007232200C0D8A70003
S1131030B081E00F804F120040420F0040B56400C1
S1131040C0CF6A00809FD500406F4001003FAB01D4
S1131050C0F30323013B70B504460D46092B40D869
S1131060DFE803F0383A1B3F3F0C3C3F3F052B4978
S1131070C4F304340C44A400256070BD2849012045
S1131080284AC4F30434536DDB07F3D4136D1842B8
S1131090FCD10C44A400256070BD2348FFF7C2FEB8
S11310A0224B0646DB6CC3F307434A2B20D0792B33
S11310B01ED0482B30D01E489A21FFF7D9FA0020C1
S11310C086421C4A1C4B94BF0020012010601B491F
S11310D01860CDE71A49CBE71A49C9E71A49102025
S11310E0CEE713484FF4BD61BDE87040FFF7C0BAC6
S11310F01649174B08698A69C96900F03F00C1F3B2
S1131100031141EA002102F0F00212480A43B2F549
S1131110017F28BF1846D3E70E48D1E7C003E41087
S1131120C002E41000800C4000430200B081E00FD4
S1131130E459000078009043A00090430002E410BA
S11311404000E4102002E4100003E410D0FF0FE09C
S113115000366E010048E80138B500F00F04631E44
S1131160062B39D8DFE803F02A1B1B38381104009A
S1131170032949D0082971D002295DD0BDE838403F
S1131180A94840F62131FFF773BA072936D0082958
S11311904BD1A64A136843F08053136021E0013910
S11311A0082900F2B981DFE811F0D500E400F2006B
S11311B0B701B7018101B701B70139010239072924
S11311C000F2A381DFE811F052009D01F000460116
S11311D0A101A101A1019601934840F62831FFF72E
S11311E047FA934A934B12681B689A4205D0BDE8AC
S11311F038408D48D821FFF73BBA38BD8B4A136875
S113120023F080531360ECE7884B40218A4A19622B
S11312101368002BFCD000F007FD844B60211A46B4
S11312205962D36A9903FCD5DBE77F4840F6DD2198
S1131230BDE83840FFF71CBA7C4B4FF480717F4AFD
S113124019621368002BFCD000F0EEFC774B4021B0
S11312501A465962D36AD803FCD5C2E7734B2021DE
S11312601A465962D36A1B04FCD5BAE7734A0424AC
S11312704FF480736D490B621368002BFCD000F0AF
S1131280D3FCFFF719F841F671326D4BDD6BDA636D
S11312905B6803F00703042B00F24581012202FA84
S11312A003F313F0130F00F03E81664B984240F2B3
S11312B07C81042262494B6823F0070313434B608B
S11312C00DB10023CB63594B5F485C62FFF7AAFD65
S11312D05E4B0446DB6CC3F307434A2B00F04981A1
S11312E0792B00F04681482B00F041814E489A2129
S11312F0FFF7BEF9002084424D4A4E4B94BF0020B4
S113130001201060186000F08FFCFEF767FF41F6C3
S113131071324B4BDC6BDA635B6803F00703042B1D
S113132000F20681012202FA03F313F0130F00F016
S1131330FF80444B984240F23081042240494B687C
S113134023F0070313434B60002C3FF44AAF002300
S1131350CB6346E700210B460A46022C334800F0D3
S1131360FC80826A22F4801323F00C030B43836213
S113137037E72E4B4FF48071304A19621368002B03
S1131380FCD000F051FC082100230222E5E7274BA2
S11313904021294A19621368002BFCD000F044FC58
S11313A0042100230122D8E7284BDB6CC3F3074355
S11313B04A2B00F00581792B00F00281482B00F0C4
S11313C0FC8019489A21FFF753F9002318461F4A55
S11313D0D26CC2F307424A2A00F04581792A00F010
S11313E04281482A04D010489A21FFF741F9012389
S11313F0104A0F4902240B601360FEF7C9FF0B4A21
S1131400104B9842136896BF23F0600343F06003C7
S113141043F0200313600E4A04232BE74FF480119A
S11314204FF48033002298E7E459000000800C4018
S113143078009043A00090439C059043A4059043FA
S113144000000C400048E80100430200B081E00FB6
S11314508C0590438D4BDB6CC3F307434A2B00F0A0
S1131460EE80792B00F0EB80482B00F0E580884873
S11314709A21FFF7FDF800221046844BDB6CC3F37E
S113148007434A2B00F0C680792B00F0C380482B19
S113149004D07F489A21FFF7EBF801227D4B7E4967
S11314A001241A600A6023467C4AE3E6FEF796FEAE
S11314B0764B0546DB6CC3F307434A2B00F096805A
S11314C0792B00F09380482B00F08E8070489A218D
S11314D0FFF7CEF8002085426E496F4B704A94BFE7
S11314E0002001200125086018600C2115600023EC
S11314F0032232E7664840F6F511BDE83840FFF7AD
S1131500B7B8684A03244023B4E6614840F6FA11A8
S1131510BDE83840FFF7ACB85D4840F67D21BDE832
S11315203840FFF7A5B8604B984206D90522C1E6BA
S11315305D4B984209D9052200E75C4B5C4A0344A1
S113154093428CBF02220322B4E6584B584A034408
S113155093428CBF02220322F0E642EA0301826A2C
S113156022F4803323F003030B43836239E64E48AD
S1131570C1E65049504B08698A69C96900F03F00C7
S1131580C1F3031141EA002102F0F00246480A4384
S1131590B2F5017F28BF1846ADE6444B444A0344E4
S11315A093428CBF00220122C8E6404B404A0344C8
S11315B093428CBF002201227CE60123184606E7F1
S11315C03C4A012011699369D26901F03F01C2F3D9
S11315D0031242EA012203F0F0031343B3F5017F3F
S11315E02CBF00230123F2E62F4874E73149324B24
S11315F008698A69C96900F03F00C1F3031141EA2F
S1131600002102F0F00228480A43B2F5017F28BF06
S1131610184660E727490C698B69C96904F03F04DF
S1131620C1F3031141EA042103F0F0030B43B3F5C2
S1131630017F28BF024631E7012210461DE71D4AFB
S1131640012011699369D26901F03F01C2F30312C9
S113165042EA012203F0F0031A43B2F5017F2CBFE2
S11316600022012209E713490C698A69C96904F057
S11316703F04C1F3031141EA042102F0F0020A43DA
S1131680B2F5017F28BF0346B2E600BFB081E00F88
S1131690E459000078009043A000904384059043EF
S11316A0100890439C0590430048E801FFDB0BFFC2
S11316B0FF23F400D0FF0FE000366E0110B40428BD
S11316C02ED8DFE800F01F25291B0300184820232B
S11316D0102469B1174B1C621AB95DF8044B00F071
S11316E0A3BA0368002BF8D10368002BF9D0F4E700
S11316F0104A5DF8044B136200F096BA0E480223B8
S11317000124E6E70D484FF400734FF48074E0E7DA
S11317100B4880234024DCE70A4808230424D8E744
S1131720094840F6DF515DF8044BFEF7A1BF00BF46
S11317309405904300800C4084059043A405904395
S11317409C0590438C059043E459000041F20C033E
S11317502049214A2DE9F0470D68D3581D4032D461
S11317601D4E1E4FB36B4FF0020905EA030425EA30
S11317700308FCB100254FF0010AE3070AFA05F259
S113178014D5B3683A6003EB0513DB6873B1197AB7
S1131790D3F800C081F001021A72BCF1000F05D029
S11317A0003118BF01215A682846E047640805F152
S11317B00105E2D1B9F1010F03D044464FF001090C
S11317C0D7E7BDE8F087064840F22B11FEF750FF3B
S11317D0C6E700BF00300C4000200C4008300C402D
S11317E0C45A00002DE9F84F0B2882460F46904654
S11317F099460A9DDDF830B00D9E7FD8B5F5806F0F
S113180076D2B6F5806F04D33F484FF40571FEF7E6
S11318102FFF3E4A4FEA0A149368D1682344DA68DA
S113182063180AB100201072BBF1000F0AD09A6845
S1131830C2F38162032A1BBF06FA02F25A4444F837
S113184001B062500B9A4AB19A68920F032A1BBFE7
S11318500B9906FA02F20B9A52185A60012000FA08
S11318600AF02A4A002F3FD09061284A10639968F1
S113187021F47F5121F0370141F0030141EA0611BF
S113188099609268A118CB680BB101261E72B9F158
S1131890000F0AD08B68C3F38163032B1BBF05FAC7
S11318A003F34B4444F80290A350B8F1000F09D05D
S11318B08B689B0F032B1BBF05FA03F24244C1F84C
S11318C004804A60114B8FB19861104C60638A6840
S11318D022F47F5323F0370343F0030343EA051351
S11318E08B60A062BDE8F88FD061BEE7D861ECE7F9
S11318F0054840F21321FEF7BBFE82E7024840F29E
S11319001221FEF7B5FE79E7C45A000000200C400E
S11319100B2870B504460D461AD845B3174AA86873
S11319209368297803EB0413D8600123A34069B1B9
S113193093636E686A78114904F5886041F8206001
S113194062B90F4B23449B001A6070BDD363F0E768
S11319500C4840F2C121FEF78BFEDEE741F2080598
S1131960074A0120224492004B51106070BD054883
S113197040F2C221FEF77CFED0E700BF00200C40FD
S11319806080E110C45A00000B28F8B506460D46E5
S1131990144617D8F4B1124BD5B9D8682178A77872
S11319A062782579890741EA0771E37841EA82621E
S11319B0A90442EA076241EA833300EB06101343A9
S11319C08360F8BD074840F20E31FEF751FEE1E7AF
S11319D09868E3E7034840F20F31FEF749FEDAE77F
S11319E000200C40C45A00002DE9F84F044600289A
S11319F05DD0237923B1314840F22941FEF738FE06
S1131A002F480121FFF724FB40F6FF7141F20C0639
S1131A1041F2080B41F20C1841F2101C41F2141E61
S1131A2041F2181741F2041A41F20819254A264DC9
S1131A3000230120C5F880005360D1615162D16256
S1131A405163D16301F10041D064935142F80B100A
S1131A501E490B604B600431A1F5885141F80A30EE
S1131A6041F8093041F8083041F80C30D4F804C08A
S1131A7041F80E30CB5141F21C17CB5141F22417DF
S1131A80DFF84C804FF0004EC8F80030CB5141F2E3
S1131A902817CB51C5F88001286042F806E0C2F847
S1131AA008C023785B0103435360BDE8F88F034803
S1131AB040F22341FEF7DCFD9BE700BFC45A00005F
S1131AC00003020000200C4000E100E000310C4063
S1131AD024310C402DE9F0470B2806468A46174668
S1131AE09946DDF82080099C9DF8285044D8B4F527
S1131AF0806F3BD2002D14BF01250325214BBAF181
S1131B00000F2DD0996801EB0611B8F1000F0AD02F
S1131B108868C0F3816003281BBF04FA00F34344C0
S1131B20C1F800800B60B9F1000F09D08868800FFC
S1131B3003281BBF04FA00F34B44C1F804904B6024
S1131B400123B3400F4A7FB9D3618A6822F47F53DB
S1131B5023F0370343EA04132B438B60BDE8F0877B
S1131B60D96801EB0611D0E79361EEE7064840F22D
S1131B707E41FEF77DFDBDE7034840F27D41FEF75F
S1131B8077FDB4E700200C40C45A000040F6FF7013
S1131B902DE9F04F41F20C0B41F2080A41F204190D
S1131BA041F2081841F20C1C41F2101E41F21417C4
S1131BB041F2181641F21C15174B18490124C3F8B9
S1131BC0804000234B60164AC8614862C86248637B
S1131BD0C863CC64134C41F80B3001F5885041F8CC
S1131BE00A4002F5895102F588540360236042F8E3
S1131BF0093042F8083042F80C3042F80E30D35124
S1131C00935153510B6041F22411535041F2281166
S1131C105350BDE8F08F00BF00E100E000200C400D
S1131C2004200C40FF0F0080024A034BD26A1A6062
S1131C30704700BF00800C401C01002004282DE9DF
S1131C40F04104460D461746984631D9052800F060
S1131C50AB8058484FF48971FEF70AFD7FBBE6005C
S1131C6031198900072D01F1804142D801F5C041A5
S1131C7048684FEA850E0F2303FA0EF320EA0302A5
S1131C8007FA0EF313434B6087B9B8F1000F50D134
S1131C90042C60D84FF6FF732B41DB075DD5344429
S1131CA0454BA40001222344AA405A60BDE8F081B8
S1131CB04FF6FF732B41DE07CBD5002FCFD0B8F101
S1131CC0000F26D0042C60D84FF6FF732B41D807A1
S1131CD04FD5E60033199B0003F1804301223119EB
S1131CE003F5C043AA408900072D1A6101F1804120
S1131CF0BCD905F1804301F5C041083B88689B00CD
S1131D000F229A4020EA020207FA03F313438B607E
S1131D10BAE7042C3ED84FF6FF732B41D90722D5DE
S1131D20E6003119244B890001220B44AA405A6071
S1131D3096E7042C33D84FF6FF732B41DA071ED5F0
S1131D403444A40004F18044012304F5C044AB40AE
S1131D502361BDE8F081052C29D0184840F2C62142
S1131D60FEF786FC9BE7154840F2C621FEF780FC8F
S1131D70D6E7124840F2F321FEF77AFCA9E70F48B0
S1131D8040F2F321FEF774FCDAE7052CF1D141F6B9
S1131D90FF739BE7052CE6D141F6FF73BDE7052CE5
S1131DA0EDD141F6FF73C8E741F6FF7382E741F6D0
S1131DB0FF7371E7D85A000010600040485B0000D0
S1131DC00B28F8B505460C4617461E4603D90748A6
S1131DD04F21FEF74DFC07F007073E4304F47C1443
S1131DE0034B3443043543F82540F8BDBC5B000085
S1131DF000C00C4010B50446B0B10E4A51691369D5
S1131E0001F00F01C3F3811343EA8103A370136943
S1131E1003F03F0363709169D36901F0F002C3F3E7
S1131E2003131343237010BD03483E21FEF720FC27
S1131E30E3E700BFD0FF0FE0D05B000090EA010FA2
S1131E4000EB010302D493EA000F01D41846704753
S1131E504FF00040704700BF90EA010FA0EB010370
S1131E6001D41846704793EA000FFAD54FF00040AA
S1131E70704700BF80FB0101002871F100024FEAA6
S1131E80E13308DB73B9030C00F4004243EA014375
S1131E9003EBD2307047013304D110F1FF3041F12C
S1131EA0FF31F0E74FF00040704700BF002955D0E4
S1131EB0F0B581EAE176A6EBE176370D80EAE073CE
S1131EC03F05A3EBE073002F39D134072CD1360939
S1131ED032073FD13609350743D13609340744D197
S1131EE03609320745D113B301224FF0FF3E03E018
S1131EF05B001CD0002A1ADBB3FA83F49442A8BF17
S1131F001446A340B3FBF6F5121B2EFA02F405FAAD
S1131F1002FC35EA040406FB1533674402F1FF3280
S1131F20E6D04FF00040F0BD1122002BDDD1484037
S1131F30C10F4B42781C83EA50000844F0BD770C73
S1131F400137B3FBF7F7A7FB0645620C42EAC5323B
S1131F509B1ABAE70D22002BC7D1E8E74FF00040E7
S1131F6070470922002BC0D1E1E70522002BBCD128
S1131F70DDE70122002BB8D1D9E700BF002907DB38
S1131F8001F5004109148142ACBF002001207047D3
S1131F90B1F5004344BF01F5FF437F331914F2E761
S1131FA0002907DB01F5004109148142D4BF002058
S1131FB001207047B1F5004344BF01F5FF437F336F
S1131FC01914F2E770B5002880EAE0750E46A5EB17
S1131FD0E0756BDB3D4B02F0070253F82240A8B2D8
S1131FE02146FFF747FF2D0C8442394B98BF01353A
S1131FF0A3FB052398BF001B5A0B4BD1354BA3FB06
S113200005239B0956D0334A4FF47A71A2FB05E2AB
S1132010920901FB1255304A3033A2FB051233708A
S1132020520901362C4B6421A3FB05E35B0901FB38
S113203013552A4B3032A3FB05133270DB080136EB
S1132040264A3033A2FB0512D20802EB8202337017
S1132050A5EB420501363035012C357006F101053A
S113206015D01E4A2E21A2FB0443DB08717006F131
S113207002050CD01646B0FBF3F1A6FB034203FBAA
S1132080110001F13004D30805F8014BF3D100230A
S11320902B7070BD42F2107303FB12550D4B30329E
S11320A0A3FB051332709B090136ACE72D230B709B
S11320B001368FE7084AA2FB05325209B2D1074B19
S11320C0A3FB0523DB08BBD1C5E700BF445C0000CC
S11320D05917B7D1D34D62101F85EB51CDCCCCCC61
S11320E02DE9F041624A03781568EA18527814071A
S11320F005D510F8013FEA1852781107F9D4A3F175
S11321002D06B6FA86F62B2B4FEA561642D0002E31
S113211040D157073AD5411C0022A3F130078E461F
S1132120C0EB010C11F8013B02EB8202EC1864785D
S113213007EB42026407F0D4F046BCF1000F25D04F
S1132140BCF1050F22DCB2F5004F1FD8DEB103F05D
S1132150FD012C294FEA024721D01C4674B12B19EA
S11321605B7813F00C0F04D110E0537813F00C0FCC
S11321700CD018F8013FEA18002BF6D172427A40CD
S11321809019BDE8F081B2F5004FE0D14FF0004066
S1132190BDE8F08143780130EA185278B9E79EF837
S11321A001000EF101082B185B7803F0040303F01F
S11321B0FF02002B46D09EF802303038EA185278DD
S11321C00EF10208510741D5A3F130019EF8033006
S11321D000EB8000EA18527801EB400052070EF140
S11321E0030836D5A3F130019EF8043000EB8000DB
S11321F0EA18527801EB400054070EF104082BD57D
S1132200A3F130019EF8053000EB8000EA18527803
S113221001EB400051070EF1050821D5A3F130016F
S11322209EF8063000EB8000EA18527801EB40007B
S113223052070EF1060817D51C460E49FFF736FE65
S113224007448BE7044601211046F7E70A211C46A0
S1132250F4E764211C46F1E74FF47A711C46EDE77C
S113226042F210711C46E9E702491C46E6E700BF4A
S113227008000020A08601007D4B2DE9F04F0422C8
S1132280C3F8A0207B4B89B01B68069013F00103B0
S1132290079157D1784ADFF810921546774E059288
S11322A04C46DFF808E27648764F7749774ADFF8FC
S11322B0E4B1DFF8FCA12B60049632E0DBF800C047
S11322C065452CBF002501250570D7F800C0658839
S11322D0654533D86E4ED6F800C065452CBF002541
S11322E001250D70049DD5F800C0A588654527D843
S11322F0DAF800C065452CBF00250125157090F85B
S113230000C091F80080157858EA0C06EDB272D13D
S1132310002D70D10633B3F5617F04F10C0400F095
S1132320A38039F81350DEF800C06545C6D90125ED
S11323300570D7F800C065886545CBD90125D0E77D
S11323400125DBE74C4ADFF86C9114464B4E00251F
S1132350059225602B46DFF854E14948494F4A4924
S11323604A4ADFF82CB1DFF848A14C46049631E024
S1132370484ED6F800C065452CBF002501250570E0
S1132380D7F800C06588654531D8DBF800C06545DD
S11323902CBF002501250D70049DD5F800C0A5882B
S11323A0654526D8DAF800C065452CBF002501250F
S11323B0157090F800C091F80080157858EA0C0662
S11323C0EDB245D1002D43D10633B3F5617F04F15D
S11323D00C0445D039F81350DEF800C06545C7D960
S11323E001250570D7F800C065886545CDD901255C
S11323F0D1E70125DCE7284A2849059D012400206E
S11324002B6014700870137803F0FF02ABB940F22C
S11324108333009202920193069813460799FFF7BB
S113242059FB144B134A1B6801331360104B0422ED
S1132430C3F8A42009B0BDE8F08F1948FEF7C8F826
S113244018490B4B002008220870C3F8A020EDE7C0
S1132450114A1248059C0121236011700170D2E7D2
S113246005990D4A0B60CEE7059A13600A4ACAE73C
S113247000600040F01D0020200100202401002005
S11324803801002030010020390100203A010020E9
S1132490340100202C010020400100202C0B0020DE
S11324A000200040C423002038120020280100200E
S11324B03C010020300B00202DE9F04F7E4891B004
S11324C00121FEF7C5FD7D480121FEF7C1FD7C48D1
S11324D00121FEF7BDFD01217A48FEF7B9FD7A4ED0
S11324E0FFF754FB794A7A4B002408A886E81400C5
S11324F009938DF82040FFF777FA764B01252046A3
S11325000AA90B9303270C968DF828408DF82950BF
S1132510FFF7FEF92046294604AA8DF811708DF8BC
S113252013408DF810508DF812508DF81440FFF7B9
S11325302BFA2046214604AAFFF726FA40F28332FA
S1132540DFF8D081644BDFF8D09121462046009219
S1132550039202934246CDF80490FFF743F91F23F8
S113256020468DF81B308DF81A708DF818408DF8C0
S113257019408DF81C408DF81D40FEF75BF821468C
S11325808DF81B005548FDF7FDFF554E8DF81C00D6
S113259006A93046FDF712FF4FF0020A30464FF409
S11325A0E0430DA98DF836A00E938DF834408DF8D4
S11325B035408DF837408DF83C408DF83D408DF81E
S11325C03E408DF83F50FDF765FF042051462346F9
S11325D00246FFF733FB0420394623460246FFF741
S11325E02DFB404B04270822C3F8A470C3F8A42091
S11325F073693D494FF0800E43F400737361504694
S1132600C1F800E02A4623464FF40021FFF7D8FB27
S1132610504621463A462346FFF710FB40F6020097
S11326203249334A334BDFF8F4E0DFF8F4B0CEF844
S113263008700860106018600868DFF8E8E0C830C7
S1132640CEF8000009682C48C839016011682B488D
S1132650C831016012682A49C83A0A601A682949CF
S1132660C8320A601B682849284AC83BCBF80030A6
S1132670DFF8B4E0DFF8B4C0254BDFF8B4A040467F
S1132680DFF8B0B04FF4E1680C7014702146424694
S11326908AF800408CF800408EF800401D70CBF89A
S11326A0004002F0ADFA48462146424602F0A8FA3C
S11326B0776011B0BDE8F08F0002050000F204005D
S11326C000D2040000030200B008002079220000B8
S11326D0000200200100080028200040405DC600E0
S11326E0002000400060004000E100E044010020C0
S11326F0480100204C0100202C0100203001002062
S11327003401002024010020380100203901002078
S1132710C423002038120020300B002000C00C40DD
S11327203C01002028010020400100202C0B002047
S11327303A010020F01D00202DE9F84F4FF6EC7E01
S11327404FF6D87AEF4B42214D224FF0000C522025
S11327504C254FF014084FF0280B19264FF00509AB
S11327603C27A3F800B0A3F8029019715871A3F89C
S11327700680A3F808909972DA72A3F80CC0A3F843
S11327800E9019745A74A3F812E0A3F81490997572
S1132790DA75A3F818A0A3F81A9019775D77DF8388
S11327A01E8483F8221083F82300A3F824B0DE8467
S11327B083F8281083F82900A3F82A809E8583F8DB
S11327C02E1083F82F20A3F830C05E8683F83410CF
S11327D083F83520A3F836E01E8783F83A1083F88F
S11327E03B20A3F83CA04FF6C47ADE8783F8401060
S11327F083F84150A3F842A04FF6D87A4FF02D0940
S1132800A3F8446083F8461083F84750A3F848704F
S1132810A3F84A9083F84C1083F84D00A3F84EB007
S1132820A3F8509083F8521083F85300A3F854800F
S1132830A3F8569083F8582083F85900A3F85AC097
S1132840A3F85C9083F85E2083F85F00A3F860E04F
S1132850A3F8629083F8642083F86500A3F866A067
S11328604FF6C47AA3F8689083F86A2083F86B5013
S1132870A3F86CA04FF6D87A4126A3F86E9083F89B
S1132880702083F87150A3F87270A3F8746083F811
S1132890762083F87700A3F878B0A3F87A6083F8F9
S11328A07C2083F87D00A3F87E80A3F8806083F801
S11328B0822083F88320A3F884C0A3F8866083F879
S11328C0882083F88920A3F88AE0A3F88C6083F831
S11328D08E2083F88F20A3F890A04FF6C47AA3F833
S11328E0926083F8942083F89550A3F896A04FF64D
S11328F0D87A4FF05509A3F8986083F89A2083F8A2
S11329009B50A3F89C70A3F89E9083F8A02083F8B2
S1132910A100A3F8A2B0A3F8A49083F8A62083F89A
S1132920A700A3F8A880A3F8AA9083F8AC2083F8A2
S1132930AD20A3F8AEC0A3F8B09083F8B22083F81A
S1132940B320A3F8B4E0A3F8B69083F8B82083F8D2
S1132950B920A3F8BAA04FF6C47AA3F8BC9083F8C0
S1132960BE2083F8BF50A3F8C0A0A3F8C29083F898
S1132970C42083F8C550A3F8C6704FF6D8774FF03B
S1132980690AA3F8C8A083F8CA2083F8CB00A3F887
S1132990CCB0A3F8CEA083F8D02083F8D100A3F85C
S11329A0D280A3F8D4A083F8D62083F8D720A3F844
S11329B0D8C0A3F8DAA083F8DC2083F8DD20A3F8DC
S11329C0DEE0A3F8E0A083F8E22083F8E320A3F894
S11329D0E4704FF6C477A3F8E6A083F8E82083F800
S11329E0E950A3F8EA70A3F8ECA083F8EE2083F88A
S11329F0EF50A3F8F0B04FF6D87B54274FF07D0981
S1132A004FF0910AA3F8F29083F8F47083F8F5007C
S1132A10A3F8F680A3F8F89083F8FA7083F8FB2003
S1132A20A3F8FCC0A3F8FE9083F8007183F8012199
S1132A30A3F802E1A3F8049183F8067183F807214F
S1132A40A3F808B1A3F80A9183F80C7183F80D5127
S1132A50A3F80E81A3F810A183F8127183F813214F
S1132A60A3F814C1A3F816A183F8187183F81921E7
S1132A70A3F81AE1A3F81CA183F81E7183F81F219F
S1132A804FF04303204C21482670617084F8D060D5
S1132A9084F8D13084F8A01184F8A131FFF720FB29
S1132AA003461B486360FFF71BFB03461948A360FA
S1132AB0FFF716FB03461848E360FFF711FB0346D4
S1132AC016482361FFF70CFB034615486361FFF7C3
S1132AD007FB03461348A361FFF702FB03461248B2
S1132AE0E361FFF7FDFA034610482362FFF7F8FAA3
S1132AF003460F486362FFF7F3FA03460D48A362E7
S1132B001AE000BFF41D0020BC080020645C000033
S1132B10705C0000785C0000805C0000885C000051
S1132B20905C00009C5C0000A45C0000AC5C0000B5
S1132B30B45C0000BC5C0000FFF7D2FA0346D34843
S1132B40E362FFF7CDFA0346D1482363FFF7C8FADF
S1132B50D04D60632846FFF7C3FA03462846A363B3
S1132B60FFF7BEFA0346CC48E363FFF7B9FA03461E
S1132B70CA482364FFF7B4FA0346C9486364FFF7FD
S1132B80AFFAC84EA0643046FFF7AAFA0346C64817
S1132B90E364FFF7A5FAC54D20652846FFF7A0FAC0
S1132BA0034628466365FFF79BFA0346C048A365BE
S1132BB0FFF796FA0346BF48E365FFF791FA034629
S1132BC0BD482366FFF78CFA0346BC486366FFF7EB
S1132BD087FA0346BA48A366FFF782FAB94FE0665C
S1132BE03846FFF77DFA0346B7482367FFF778FABC
S1132BF00346B6486367FFF773FA0346B448A3670E
S1132C00FFF76EFAB34DE0672846FFF769FA03460B
S1132C10B148C4F88030FFF763FA0346AF48C4F8FC
S1132C208430FFF75DFA0346AD48C4F88830FFF7F7
S1132C3057FA0346AB48C4F88C30FFF751FA034601
S1132C40A948C4F89030FFF74BFADFF84483C4F87E
S1132C5094004046FFF744FA03464046C4F89830CF
S1132C60FFF73EFA0346A148C4F89C30FFF738FA50
S1132C7003463046C4F8A030FFF732FA03469C48B6
S1132C80C4F8A430FFF72CFA03469A48C4F8A830D5
S1132C90FFF726FA03469848C4F8AC30FFF720FA49
S1132CA003469648C4F8B030FFF71AFA034694482E
S1132CB0C4F8B430FFF714FA03469248C4F8B830A5
S1132CC0FFF70EFA03469048C4F8BC30FFF708FA41
S1132CD003468E48C4F8C030FFF702FA03468C4816
S1132CE0C4F8C830FFF7FCF903468A48C4F8CC306E
S1132CF0FFF7F6F903468848C4F8D430FFF7F0F933
S1132D0003468648C4F8D830FFF7EAF903468448F6
S1132D10C4F8DC30FFF7E4F903468248C4F8E03035
S1132D20FFF7DEF903468048C4F8E430FFF7D8F92A
S1132D3003467E48C4F8E830FFF7D2F903467C48DE
S1132D40C4F8EC30FFF7CCF903467A48C4F8F03005
S1132D50FFF7C6F903467848C4F8F430FFF7C0F922
S1132D6003467648C4F8F830FFF7BAF903467448C6
S1132D70C4F8FC30FFF7B4F903467248C4F80031D4
S1132D80FFF7AEF9704EC4F804013046FFF7A8F916
S1132D9003463046C4F80831FFF7A2F903466B48EE
S1132DA0C4F80C31FFF79CF903466948C4F81031A4
S1132DB0FFF796F903466748C4F81431FFF790F912
S1132DC0654EC4F818013046FFF78AF90346634894
S1132DD0C4F81C31FFF784F9DFF8B881C4F8200186
S1132DE04046FFF77DF903464046C4F82431FFF717
S1132DF077F903465A48C4F82831FFF771F90346B6
S1132E005848C4F82C31FFF76BF903465648C4F808
S1132E103031FFF765F903465448C4F83431FFF7FD
S1132E205FF903465248C4F83831FFF759F90346AD
S1132E303846C4F83C31FFF753F903464D48C4F80B
S1132E404031FFF74DF903464B48C4F84431FFF7CE
S1132E5047F903464948C4F84831FFF741F90346A6
S1132E604748C4F84C31FFF73BF903464548C4F8DA
S1132E705031FFF735F903464348C4F85431FFF79E
S1132E802FF903464148C4F8583185E0C85C000076
S1132E90D05C0000D85C0000E05C0000EC5C00004A
S1132EA0F85C0000045D00000C5D0000145D00008F
S1132EB01C5D0000245D00002C5D0000385D0000F6
S1132EC0405D0000485D0000505D0000585D00005A
S1132ED0605D0000685D0000705D0000785D0000CA
S1132EE0805D0000885D0000905D0000A05D000032
S1132EF0A85D0000B05D0000B85D0000C05D00008A
S1132F00C85D0000D45D0000DC5D0000E45D0000ED
S1132F10EC5D0000F45D0000FC5D0000045E000058
S1132F20085E0000105E0000185E0000245E0000D1
S1132F302C5E0000345E00003C5E0000445E000035
S1132F40505E0000585E0000605E0000685E000095
S1132F50705E00007C5E0000885E0000905E0000F1
S1132F60A05E0000A85E0000B45E0000BC5E00002D
S1132F70C45E0000CC5E0000D45E0000DC5E000095
S1132F80E45E0000F05E0000F85E0000005F0000F8
S1132F90985D0000985E0000FFF7A2F80346C4485D
S1132FA0C4F85C31FFF79CF80346C248C4F86031AA
S1132FB0FFF796F8C04FC4F864013846FFF790F85D
S1132FC003463846C4F86831FFF78AF80346BB481D
S1132FD0C4F86C31FFF784F803463046C4F8703106
S1132FE0FFF77EF80346B648C4F87431FFF778F863
S1132FF00346B448C4F87831FFF772F80346B24880
S1133000C4F87C31FFF76CF80346B048C4F880314B
S1133010FFF766F80346AE48C4F88431FFF760F85A
S11330200346AC48C4F88831FFF75AF80346AA4867
S1133030C4F88C31FFF754F80346A848C4F890311B
S1133040FFF74EF80346A648C4F89831FFF748F84E
S11330500346A448C4F89C31FFF742F80346A2484B
S1133060C4F8A431FFF73CF80346A048C4F8A831DB
S1133070FFF736F803469E48C4F8AC31FFF730F842
S113308003469C48C4F8B031FFF72AF803469A482F
S1133090C4F8B431FFF724F803469848C4F8B831AB
S11330A0FFF71EF803469648C4F8BC31FFF718F83A
S11330B003469448C4F8C031FFF712F80346924817
S11330C0C4F8C431FFF70CF803469048C4F8C8317B
S11330D0FFF706F88E4EC4F8CC013046FFF700F82F
S11330E003468C48C4F8D031FEF7FAFF8A4FC4F87F
S11330F0D4013846FEF7F4FF03463846C4F8D83105
S1133100FEF7EEFF03462846C4F8DC31FEF7E8FF7D
S113311003468248C4F8E031FEF7E2FF03468048E4
S1133120C4F8E431FEF7DCFF7E4DC4F8E80128461C
S1133130FEF7D6FF03467C48C4F8EC31FEF7D0FF17
S11331407A4FC4F8F0013846FEF7CAFF0346384602
S1133150C4F8F431FEF7C4FF03467548C4F8F831E7
S1133160FEF7BEFF03467348C4F8FC31FEF7B8FF10
S113317003467148C4F80032FEF7B2FF03466F48B5
S1133180C4F80432FEF7ACFF03466D48C4F80832B5
S1133190FEF7A6FF03466B48C4F80C32FEF7A0FF07
S11331A003466948C4F81032FEF79AFF03463046D6
S11331B0C4F81432FEF794FF03466448C4F8183286
S11331C0FEF78EFF03466248C4F81C32FEF788FF00
S11331D003466048C4F82032FEF782FF03465E4887
S11331E0C4F82432FEF77CFF03465C48C4F8283256
S11331F0FEF776FF03465A48C4F82C32FEF770FFF8
S113320003465848C4F83032FEF76AFF564EC4F8F5
S113321034023046FEF764FF03463046C4F83832C1
S1133220FEF75EFF03465148C4F83C32FEF758FFF0
S113323003462846C4F84032FEF752FF4C4DC4F80A
S113324044022846FEF74CFF03464A48C4F8483275
S1133250FEF746FF03464848C4F84C32FEF740FFE9
S113326003464648C4F85032FEF73AFF0346444842
S1133270C4F85432FEF734FF03462846C4F85832E3
S1133280FEF72EFF03463F48C4F85C32FEF728FFE2
S113329003463D48C4F86032FEF722FF03463B482C
S11332A0C4F86832FEF71CFFC4F86C02BDE8F88F5E
S11332B0085F0000105F00001C5F0000245F000036
S11332C0305F0000385F0000405F0000485F00008E
S11332D0505F0000585F0000605F0000685F0000FE
S11332E0705F0000785F0000805F0000885F00006E
S11332F0905F0000985F0000A05F0000AC5F0000DA
S1133300B45F0000BC5F0000C45F0000CC5F00003D
S1133310D45F0000DC5F0000E45F0000EC5F0000AD
S1133320F45F0000FC5F0000046000000C6000001B
S1133330146000001C60000028600000346000007D
S11333403C600000446000004860000050600000E1
S113335058600000646000006C600000746000004D
S11333607C60000088600000946000009C600000A5
S1133370A8600000B0600000BC600000C8600000ED
S1133380D0600000D8600000E0600000E860000049
S1133390101E1ADD70B40E184FF0604401E0B14203
S11333A012D0D4F8803E11F8015BDA07F7D5D4F8CF
S11333B0003EDB07F3D523681BB900BF2368002B4D
S11333C0FBD0B1422570ECD170BC7047024B4FF476
S11333D000721A62704700BF0020004029492A4B3E
S11333E00A46486C2DE9F04740F400504864D3F88D
S11333F02001102440F00400C3F82001D3F8200178
S113340020F44070C3F82001D3F8B80020F47060B1
S1133410C3F8B800D3F8B80040F48060C3F8B8002B
S11334200C62D36A9B06FCD5184C194AE068DFF895
S113343068A0DFF868E0DFF868C0164F4FF060431B
S1133440002140F080704FF002094FF00F084FF454
S113345080760125E060C3F8B0AFC3F8001EC3F85E
S1133460801EC2F8F090C2F81080C3F8401ECEF857
S113347000C0C3F8807EC2F80463C3F8005EBDE8F0
S1133480F08700BF00800C4000600040F0ED00E0D9
S1133490000004E00D00010055CEACC5001000E0B2
S11334A0FE0300402DE9F04F87B010B9002900F069
S11334B0A2830646082090460F4601F091FB019036
S11334C0002800F09B830023ADF80830ADF80A30E3
S11334D0ADF80C30ADF80830BDF808301BB22F2B16
S11334E01CDC002EC34BC0F25A81BDF8082012B276
S11334F003EB82025268002A05DBBDF80C2001327E
S113350092B2ADF80C20BDF80820013292B2ADF8A9
S11335100820BDF8082012B22F2AE6DDBDF80C0001
S113352000B2400001F05CFB0446002800F0668312
S11335300023ADF80E30ADF80830BDF808301BB2EA
S11335402F2B23DC002EAB4BC0F24B81BDF808209F
S113355012B203EB82025268002A0CDBBDF80E1093
S1133560BDF80800BDF80E2009B2013292B224F869
S11335701100ADF80E20BDF80820013292B2ADF86A
S11335800820BDF8082012B22F2ADFDD0023ADF891
S11335901030ADF80830BDF808301BB22F2B1DDCFD
S11335A0002F944BC0F23A81BDF8080000B23430C9
S11335B003EB80004268002A05DBBDF810200132CD
S11335C092B2ADF81020BDF80820013292B2ADF8E5
S11335D00820BDF8082012B22F2AE5DDBDF810003E
S11335E000B2400001F0FCFA0646002800F0068311
S11335F00023ADF80E30ADF80830BDF808301BB22A
S11336002F2B24DC002F7B4BC0F22B81BDF808202C
S113361012B2343203EB82025268002A0CDBBDF88A
S11336200E10BDF80800BDF80E2009B2013292B2A6
S113363026F81100ADF80E20BDF80820013292B230
S1133640ADF80820BDF8082012B22F2ADEDD0023D1
S1133650ADF81230ADF80830BDF808301BB22F2B8E
S11336601EDCB8F1000F634BC0F21781BDF80820CF
S113367012B2683203EB82025268002A05DBBDF8FD
S11336801220013292B2ADF81220BDF808200132A6
S113369092B2ADF80820BDF8082012B22F2AE5DD59
S11336A0BDF8120000B2400001F09AFA0746002863
S11336B000F0A4820023ADF80E30ADF80830BDF858
S11336C008301BB22F2B25DCB8F1000F494BC0F298
S11336D00781BDF8082012B2683203EB82025268F7
S11336E0002A0CDBBDF80E10BDF80800BDF80E2052
S11336F009B2013292B227F81100ADF80E20BDF8DC
S11337000820013292B2ADF80820BDF8082012B2A8
S11337102F2ADEDD0021ADF81410ADF80810BDF835
S11337200820BDF80C3012B21BB29A4280F2E98034
S1133730ADF80A1005E0BDF80A3001339BB2ADF8CC
S11337400A30BDF80A20BDF8103012B21BB29A42FA
S113375080F2D080BDF80820BDF80A3012B21BB246
S113376034F9122036F913309A42E4D1BDF81430FA
S113377001339BB2ADF81430DDE7BDF80C20013203
S113378092B2ADF80C20BDF80820013292B2ADF827
S11337900820BDF8082012B22F2A3FF7BFAEBDF8AB
S11337A0082012B203EB82025268002AEBDAE4E743
S11337B0BDF80E10BDF80800BDF80E2009B20132A4
S11337C092B224F81100ADF80E20BDF808200132A1
S11337D092B2ADF80820BDF8082012B22F2A3FF7A4
S11337E0D5AEBDF8082012B203EB82025268002A5B
S11337F0EBDADDE7BC080020BDF81020013292B2FC
S1133800ADF81020BDF80820013292B2ADF80820BE
S1133810BDF8082012B22F2A3FF7E0AEBDF8082009
S113382012B2343203EB82025268002AEADAE3E786
S1133830BDF80E10BDF80800BDF80E2009B2013223
S113384092B226F81100ADF80E20BDF8082001321E
S113385092B2ADF80820BDF8082012B22F2A3FF723
S1133860F6AEBDF8082012B2343203EB820252687D
S1133870002AEADADCE7BDF81220013292B2ADF890
S11338801220BDF80820013292B2ADF80820BDF82C
S1133890082012B22F2A3FF703AFBDF8082012B256
S11338A0683203EB82025268002AEADAE3E7BDF8E1
S11338B00E10BDF80800BDF80E2009B2013292B214
S11338C027F81100ADF80E20BDF80820013292B29D
S11338D0ADF80820BDF8082012B22F2A3FF71AAF1E
S11338E0BDF8082012B2683203EB82025268002A43
S11338F0EADADCE7BDF8083001339BB2ADF80830F2
S11339000DE7BDF8140000B2400001F069F98046EB
S1133910002800F073810021ADF80E10ADF80810F6
S1133920BDF80830BDF80C201BB212B29A423BDD40
S1133930ADF80A1005E0BDF80A3001339BB2ADF8CA
S11339400A30BDF80A20BDF8103012B21BB29A42F8
S11339501CDABDF80820BDF80A3012B21BB234F9E3
S1133960122036F913309A42E5D1BDF80E20BDF885
S11339700800BDF80E3000B234F81000013312B262
S11339809BB228F81200ADF80E30D4E7BDF8083029
S113399001339BB2ADF80830BDF80820BDF80C30F7
S11339A012B21BB29A42C3DB0021ADF81610ADF877
S11339B00810BDF80820BDF8143012B21BB29A42A8
S11339C032DAADF80A10BDF80A30BDF812201BB285
S11339D012B29A420EDC20E0BDF80A3001339BB2E9
S11339E0ADF80A30BDF80A20BDF8123012B21BB28D
S11339F09A4212DABDF80820BDF80A3012B21BB29E
S1133A0038F9122037F913309A42E5D1BDF816304F
S1133A1001339BB2ADF81630DEE7BDF80830013350
S1133A209BB2ADF80830C4E7BDF8160000B2400000
S1133A3001F0D6F80546002800F0E0800021ADF83A
S1133A400E10ADF80810BDF80830BDF814201BB2F4
S1133A5012B29A4243DDADF80A10BDF80A30BDF83F
S1133A6012201BB212B29A420EDC2AE0BDF80A30D0
S1133A7001339BB2ADF80A30BDF80A20BDF812300C
S1133A8012B21BB29A421CDABDF80820BDF80A3003
S1133A9012B21BB238F9122037F913309A42E5D129
S1133AA0BDF80E20BDF80800BDF80E3000B238F89D
S1133AB01000013312B29BB225F81200ADF80E309B
S1133AC0D4E7BDF8083001339BB2ADF80830BDF837
S1133AD00820BDF8143012B21BB29A42BBDBBDF809
S1133AE0160000B2400001F07BF88146002800F087
S1133AF08580BDF8160000B2400001F071F88346DD
S1133B0000287BD00023ADF80830BDF80830BDF89C
S1133B1016201BB212B29A4243DDDFF8F0A0BDF8C2
S1133B200820BDF8083012B21BB235F913303548FD
S1133B3003EB43033AF813E0BDF80810BDF808306E
S1133B4029F812E01BB239F9132009B201F0FAF88E
S1133B50BDF80820BDF8083012B21BB235F9133095
S1133B60294803EB43030AEB4303B3F802E0BDF82F
S1133B700810BDF808302BF812E01BB239F91320F5
S1133B8009B201F0DFF8BDF8083001339BB2ADF89B
S1133B900830BDF80820BDF8163012B21BB29A42A4
S1133BA0BDDBBDF81610484609B200F06BFABDF84B
S1133BB01610824609B2584600F064FA019A506021
S1133BC0C2F800A0204601F013F8304601F010F8C6
S1133BD0384601F00DF8404601F00AF8284601F095
S1133BE007F8484601F004F8584601F001F8019836
S1133BF007B0BDE8F08F002A7FF45BAC002007B06B
S1133C00BDE8F08FF0600000FC600000F41D0020AF
S1133C1010B501210A46094C0220FDF74FFD112081
S1133C200421FDF799FA20460121FCF709FE2046FC
S1133C30BDE810400121FDF70BBA00BF408104002C
S1133C4010B506480121FDF703FABDE81040002035
S1133C50022104220123FDF7F1BF00BF00D20400BA
S1133C602DE9F04796B0FFF7EBFF6D4B11A81C68E8
S1133C70FEF7C0F8B4F1805F0AD39DF84430032BFB
S1133C8006D1684A136823F0500343F0100313600D
S1133C90FFF7BEFFFFF7A2FBFEF70EFCFEF74CFD9D
S1133CA0DFF8BC81604F614E98F8003003F0FF00EC
S1133CB0002BF9D1DFF8AC915D4D5E4C0321042259
S1133CC00123FDF7BBFF4846294622465A4BB3F869
S1133CD000E0B3F802C020F802EF063333F802EC38
S1133CE0B34221F802CF22F802EFF0D14E4ADFF8B6
S1133CF078E152485249002337F803C0B2F802A0D1
S1133D0006332EF802CFB2F804C0B3F5E16F20F801
S1133D1002AF21F802CF02F10602EDD1DFF84CA187
S1133D2039F9021F474835F9022F34F9023F01F0EF
S1133D3009F8D145F4D14FF41673ADF80230BDF84B
S1133D400210414809B200F0F9F8BDF802103F48EA
S1133D5009B200F0F3F8BDF802103D4809B200F0D2
S1133D60EDF8BDF80210384809B200F029FBBDF89F
S1133D700210054609B2354800F022FBBDF80210D6
S1133D80824609B2324800F01BFB514604462846DD
S1133D9000F06EF821468146284600F069F8214675
S1133DA00546504600F064F8044603A9484602223A
S1133DB0FEF708F9284606A90222FEF703F9204671
S1133DC009A90222FEF7FEF803A906AA214809ABB5
S1133DD000F0B8FF484629462246FFF763FBD8B1F6
S1133DE090E80C000192029301980CA90222FEF7BC
S1133DF0E9F8029811A90222FEF7E4F816480CA982
S1133E0011AA00F09FFF0020034603210422FDF7BE
S1133E1015FFFEF751FB47E7104800F093FFF2E768
S1133E20FC81E00FC0800C40300B002040190020C2
S1133E30121F00203E190020381200206A210020A1
S1133E40961B00200861000000040020141F0020BD
S1133E504019002014610000386100003061000046
S1133E60C4230020FE03002056060020AE080020D4
S1133E7070B5054606480E46FEF732F9044631048D
S1133E802804FDF7E9FF2146BDE87040FDF7F2BFC5
S1133E9050610000F0B482B0002400AF5300FC80F5
S1133EA00833FC8823F00703ADEB030D23B29A42D9
S1133EB06D460FDDFC88FE88FB8836B201339BB269
S1133EC0FB80FB8830F816601BB224B29A4225F8B6
S1133ED01460EFDCFA80FB881BB2994210DDFB888A
S1133EE0FE88FC8836B20134A4B2FC80FC881BB284
S1133EF030F8166024B29B1A8C4220F81360EEDB73
S1133F000023FB80FB881BB29A42C8BF891A10DDCC
S1133F10FB88FE88FC8836B20134A4B2FC80FC889D
S1133F201BB235F8166024B20B44A24220F8136089
S1133F30EEDC0837BD46F0BC704700BFF0B505465F
S1133F4085B048000C4600F04BFE38B3ADF808408D
S1133F50BDF808301BB2002B1EDDBDF80810BDF8FB
S1133F600860BDF80830BDF808201BB2013A92B2CF
S1133F7003F10043013BADF8082035F8137036B265
S1133F80BDF8083035F816601BB20AB2002BA6EB58
S1133F90070120F81210E0DC438803800023ADF809
S1133FA00A30BDF80A301BB29C4217DDBDF80A2066
S1133FB0BDF80A10BDF80A3009B201339BB2ADF85E
S1133FC00A3030F91110BDF80A3000291BB2B8BF0D
S1133FD0494212B29C4220F81210E7DC0288012305
S1133FE0ADF80C2014E0BDF80E20BDF80C3012B270
S1133FF030F912201BB29A4206DDBDF80E301BB216
S113400030F81330ADF80C30BDF80E3001339BB2EC
S1134010ADF80E30BDF80E301BB29C42E3DC002339
S1134020BDF80C20ADF80630BDF8063092B21BB2D4
S11340309C421ADDBDF8063012B21BB230F91330BF
S1134040934207D11AE0BDF806301BB230F91330A1
S1134050934213D0BDF8063001339BB2ADF806305D
S1134060BDF806301BB29C42EDDC4FF6FF722846C9
S1134070214612B2FFF70EFF05B0F0BDBDF80620D1
S113408092B2F4E710B5002384B0ADF80030ADF877
S11340900230BDF802301BB2994215DDBDF8022092
S11340A0BDF8004012B230F8123023449BB2ADF890
S11340B00030BDF8023001339BB2ADF80230BDF8D8
S11340C002301BB28B42E9DBBDF8003009041B044B
S11340D00193029101980299FDF7E8FE0390039879
S11340E004B010BD2DE9F04100238EB00293ADF869
S11340F00630BDF806301BB2994212DDBDF8062029
S1134100029B12B230F9122013440293BDF8063018
S113411001339BB2ADF80630BDF806301BB28B42BA
S1134120ECDB029B09021B02039304910398049A9B
S1134130C517290241EA1061D317000200F022FAE0
S11341400590059D0024A542069407940894C0F2A6
S11341500B812E12F717304639460A22002300F04D
S11341602DFA3046394602F1300600230A228DF832
S1134170186000F023FA06460F4656EA070300F0DB
S1134180FC800A22002300F019FA3046394602F175
S1134190300600230A228DF8196000F00FFA064653
S11341A00F4656EA070300F0F1800A22002300F0CC
S11341B005FA3046394602F1300600230A228DF80A
S11341C01A6000F0FBF906460F4656EA070300F0B2
S11341D0EB800A22002300F0F1F93046394602F15F
S11341E0300600230A228DF81B6000F0E7F906462A
S11341F00F4656EA070300F0D9800A22002300F094
S1134200DDF93046394602F1300600230A228DF8E2
S11342101C6000F0D3F906460F4656EA070300F087
S1134220C7800A22002300F0C9F93046002302F1B6
S1134230300639460A228DF81D6000F0BFF950EAB5
S1134240010300F0B7800A22002300F0B7F93032EE
S11342508DF81E2007230EA9581EDA1E0E181144CD
S113426011F820EC0EA9194416F8207C11F8228CC0
S1134270661C0EA901EB060C214401F8147C0CF811
S1134280148CE71C01F812EC22B3191F0EAA0A447D
S113429012F8202C0DF1380E774407F8142C221D47
S11342A0C1B17746591F0F4417F8207C724402F8B5
S11342B0147C621D71B17146063B194411F8201C2F
S11342C07244063402F8141C23B19DF81830744467
S11342D004F8143C2A0692184FF000035B419D0039
S11342E09400A41845EA92755D4106440EAB03EBB5
S11342F006084FF02E0E002708F814EC284639461D
S11343000A22002300F05AF954EA050302F13002AC
S113431008F8132C06F102084ED022194FF00003BE
S11343205B419900900041EA927112184B41184682
S113433039460A22002300F041F90EAB43443032DF
S113434003F8142C09A810F808300336302B11D0C8
S11343500EAB1E44002306F8143CFDF7C1FE069084
S113436006980EB0BDE8F0812D236D428DF82430FF
S11343700124EEE600F80870EFE79DF818200EAB74
S1134380234403F8142C661C0020A3E7661C0EAB20
S11343909DF819109DF818201C44334404F8141C8B
S11343A0012003F8142C95E7032354E7042352E770
S11343B0052350E706234EE7464609A8C8E700BF91
S11343C0F0B514238DB0ADF80630BDF806303222B6
S11343D01B040693ADF80820BDF8083005460C46CA
S11343E019B2FFF77FFE2E8807900123BDF808104D
S11343F0ADF80E60ADF81030BDF8103009B21BB244
S113440099421BDDBDF81020BDF80E3012B235F90B
S113441012201BB29A4206DDBDF810301BB235F8EB
S11344201330ADF80E30BDF8103001339BB2ADF847
S11344301030BDF810301BB29942E3DCBDF80E30E9
S113444001229BB2ADF80A30BDF80810ADF8126035
S1134450ADF81420BDF8143009B21BB299421BDD2B
S1134460BDF81420BDF8123012B235F912201BB277
S11344709A4206DABDF814301BB235F81330ADF8A1
S11344801230BDF8143001339BB2ADF81430BDF8CE
S113449014301BB29942E3DCBDF812309BB2ADF884
S11344A00C30BDF80A301B040893BDF80C301B0413
S11344B0099308980799FDF7CFFC0699FDF7DAFCF4
S11344C00799FDF7BBFC0A90079E07980999FDF729
S11344D0C3FC0699FDF7CEFC01463046FDF7BCFC53
S11344E00B900A9E00230B9F15E0BDF81630314651
S11344F01BB235F91300FDF741FDC0B9BDF8163004
S113450039461BB235F91300FDF74AFD78B9BDF8F9
S1134510163001339BB2ADF81630BDF816301BB21D
S11345209C42E2DC4FF6FF7000B20DB0F0BDBDF866
S1134530160080B200B20DB0F0BD00BF08B9012072
S11345407047034B09221A604FF0FF30704700BFD9
S1134550C823002000207047022804D9034B0922F5
S11345601A60002070470120704700BFC823002054
S11345704FF400534B600020704700BF4FF0FF30F2
S1134580704700BF7BB972B90029BEBF00204FF04D
S1134590004106E008BF00281CBF6FF000414FF047
S11345A0FF3000F053B882B0EC462DE9005000F023
S11345B01DF8DDF804E002B00CBC704753B94AB9E9
S11345C0002908BF00281CBF4FF0FF314FF0FF3017
S11345D000F03CB882B0EC462DE9005000F01EF823
S11345E0DDF804E002B00CBC704700BF2DE9F041D7
S11345F0069C904606460F461D4600F029F808FB27
S113460001FCA8FB002300FB05C5B21A2B4467EB91
S113461003038646C4E90023BDE8F0812DE9F8438D
S1134620089E1746804689461D4600F067F900FB40
S113463005F3A0FB074507FB0137B8EB04043D4431
S113464069EB0505C6E90045BDE8F883704700BF7E
S113465000292DE9F043C0F2A8800026002BC0F207
S11346609E8081468E4690469C46174604460D46DB
S1134670002B3DD18A4259D9B2FA82F33BB1C3F13E
S113468020029D4020FA02F29F4015439C40390CC1
S1134690B5FBF1F01FFA87FE01FB10550EFB00F38A
S11346A0220C42EA0545AB4209D9ED1900F1FF326B
S11346B080F00B81AB4240F2088102383D44ED1A90
S11346C0B5FBF1F301FB13550EFB03FEA4B244EA60
S11346D00545AE4508D9ED1903F1FF3280F0F780A6
S11346E0AE4540F2F480023B43EA0043002203E07B
S11346F08B420FD900221346341C18BF0124604298
S11347004FF0000565EB45015840514000196941DF
S1134710BDE8F083B3FA83F2002A40F089808B422B
S113472002D3804500F2E2800123E5E712B90123B8
S1134730B3FBF2F7B7FA87F8B8F1000F3BD1ED1BE2
S11347404FEA174C1FFA87FE0122B5FBFCF00CFB65
S113475010550EFB00F3210C41EA0545AB4207D985
S1134760ED1900F1FF3102D2AB4200F2C3800846DA
S1134770ED1AB5FBFCF30CFB13550EFB03FEA4B2C0
S113478044EA0545AE4507D9ED1903F1FF3102D2DC
S1134790AE4500F2AD800B4643EA0043ACE752421B
S11347A06FEA060663EB43035BE7404261EB4101BA
S11347B04FF0FF3652E707FA08F7C8F1200225FA4E
S11347C002F34FEA174CB3FBFCF11FFA87FE0CFB14
S11347D0113324FA02F205FA08F50EFB01F92A4313
S11347E0100C40EA0343994504FA08F407D9DB198D
S11347F001F1FF3078D2994576D902393B44C9EBAF
S11348000303B3FBFCF00CFB10330EFB00F592B278
S113481042EA03439D4207D9DB1900F1FF325FD21C
S11348209D425DD902383B445D1B40EA01428CE75E
S1134830C2F1200328FA03F10CFA02FC41EA0C0C41
S11348404FEA1C402EFA03F1B1FBF0F51FFA8CF786
S113485000FB151129FA03F30EFA02FE07FB05F912
S113486043EA0E0E4FEA1E4343EA0141894508FA22
S113487002F808D911EB0C0105F1FF3332D2894556
S113488030D9023D6144C9EB0101B1FBF0F300FBF7
S1134890131107FB03F71FFA8EFE4EEA014E77450C
S11348A008D91EEB0C0E03F1FF3117D2774515D949
S11348B0023BE64443EA0543A3FB0889C7EB0E0E1B
S11348C0CE4509D305D0002216E71046F7E6134675
S11348D00AE794404445F6D2013BF4E70B46E9E786
S11348E01046A1E71D46CEE7014688E7134603E7D5
S11348F0023B51E702383D443AE700BF2DE9F0435B
S1134900002B44D18A42154604464FD9B2FA82F7A5
S11349100E464FB1C7F12003B94020FA03F602FA5C
S113492007F50E4300FA07F42F0CB6FBF7F01FFA55
S113493085FE07FB10620EFB00F1260C46EA0243DB
S1134940994209D95B1900F1FF3280F0EE80994257
S113495040F2EB8002382B44591AB1FBF7F307FB02
S113496013110EFB03FEA4B244EA01418E4508D99B
S1134970491903F1FF3280F0DA808E4540F2D78086
S1134980023B43EA004000263146BDE8F0838B42F7
S113499047D8B3FA83F6002E48D18B4202D3824221
S11349A000F2CF8001203146BDE8F08312B9012521
S11349B0B5FBF2F5B5FA85FCBCF1000F78D1491BC3
S11349C02F0C1FFA85FE0126B1FBF7F007FB10112F
S11349D00EFB00F2230C43EA01418A4207D949192C
S11349E000F1FF3302D28A4200F2BC801846891AD1
S11349F0B1FBF7F307FB13110EFB03FEA4B244EA69
S1134A000142964508D9521903F1FF3180F0918093
S1134A10964540F28E80023B43EA00403146BDE8B1
S1134A20F083002630463146BDE8F083C6F1200409
S1134A3022FA04F5B3402B4321FA04F74FEA134852
S1134A40B7FBF8FC1FFA83F908FB1C7720FA04FE75
S1134A5001FA06F509FB0CF44EEA05054FEA154E7A
S1134A604EEA0747BC4202FA06F204D9FF180CF1D9
S1134A70FF3168D38C463F1BB7FBF8F408FB14776F
S1134A8009FB04F9ADB245EA0741894504D9C918BF
S1134A9004F1FF355DD32C4644EA0C44A4FB022305
S1134AA0C9EB0101994249D345D0204600266BE762
S1134AB0CCF1200405FA0CF521FA04F32A0CB3FB1B
S1134AC0F2F61FFA85FE02FB163820FA04F701FA03
S1134AD00CF10EFB06F90F433C0C44EA08439945DC
S1134AE000FA0CF407D95B1906F1FF3138D2994565
S1134AF036D9023E2B44C9EB0303B3FBF2F002FBAD
S1134B0010330EFB00F1BFB247EA0343994207D9C1
S1134B105B1900F1FF3721D299421FD902382B4487
S1134B201746591A40EA06464EE7104614E713465C
S1134B3027E70B4670E7B0409042B6D2601E0026CD
S1134B4022E7304620E7BC4294D9ACF1020C1F4462
S1134B5091E789459FD9023C19449DE73846DFE730
S1134B600E46C8E70238294441E700BF08B5074BA1
S1134B70044613B10021AFF30080054B1868836A23
S1134B8003B19847204600F015FF00BF0000000065
S1134B905C6200000E4B70B51E460E4C0025E41AF4
S1134BA0A410A54204D056F8253098470135F8E7FB
S1134BB000F002FF084B094C1E46E41AA41000251D
S1134BC0A54204D056F8253098470135F8E770BD62
S1134BD0700000207000002070000020740000208D
S1134BE0024B0146186800F057B800BF6C00002063
S1134BF0024B0146186800F00BB800BF6C0000209F
S1134C0003460244934202D003F8011BFAE77047BB
S1134C1030B500293CD051F8042C0B1F1D49002A43
S1134C20B8BF9B180A680C4612B95A600B6030BDB5
S1134C3093420DD219685818904201BF5A5852181D
S1134C401A60426823605A6030BD994203D80A460C
S1134C5051680029F9D1146815199D420AD11B68BD
S1134C602344D0188842136012D1086803441360A7
S1134C704B680CE002D90C23036030BD1C68181982
S1134C80884201BF08684968001918605960536078
S1134C9030BD00BF5401002070B5CC1C24F00304C7
S1134CA008340C2C38BF0C24002C064603DA0C23E1
S1134CB03360002070BD8C42F9D3204A136810463B
S1134CC01946A1B10A68121B0ED40B2A03D90A6033
S1134CD08B188C501FE08B420BBF5A684A680260E5
S1134CE05A6018BF0B4616E00B464968E9E7144DB5
S1134CF02B681BB9304600F03DF828603046214649
S1134D0000F038F8421C0346D1D0C51C25F0030539
S1134D1085420AD11C6003F10B001A1D20F0070024
S1134D20821A0AD05142995070BD3046E91A00F0F7
S1134D3021F80130BBD02B46ECE770BD54010020B4
S1134D40500100200FB40A4B13B51C6824B1A369A9
S1134D5013B9204600F05EF805AB2046A168049A1A
S1134D60019300F007F902B0BDE8104004B07047A9
S1134D706C00002038B5064C002305460846236025
S1134D8000F00AFE431C02D1236803B12B6038BD36
S1134D90C8230020014900F0A7B800BF055800004F
S1134DA010B5044600230360436083608181436639
S1134DB0C28103614361836119465C300822FFF7B5
S1134DC01FFF054B24626362044BA362044BE3623E
S1134DD0044B236310BD00BFB1540000D354000042
S1134DE00B5500002F55000070B568234D1E5D4320
S1134DF00E4605F17401FFF74FFF044640B1002150
S1134E0080E842000C30A06005F16802FFF7F8FE6C
S1134E10204670BD836910B5044633BB8364C36404
S1134E200365124B124A1B688262984204BF012335
S1134E30836100F01FF86060204600F01BF8A0605A
S1134E40204600F017F80421E06000226068FFF7B4
S1134E50A7FFA06809210122FFF7A2FFE068122141
S1134E600222FFF79DFF0123A36110BD5C620000D5
S1134E70954D0000F8B51B4B07461E68B36913B97E
S1134E803046FFF7C7FF4836B4687368013B04D463
S1134E90B4F90C5075B16834F8E733682BB9384667
S1134EA00421FFF7A1FF306008B13668ECE70C235A
S1134EB03B60F8BD4FF6FF73E3810123A381656670
S1134EC02560A560656025616561A56104F15C00EC
S1134ED029460822FFF794FE6563A563A564E5648B
S1134EE02046F8BD5C6200002DE9F84380468946FF
S1134EF000F14804002694B1A5686768013F0CD40A
S1134F00AB89012B07D9B5F90E30013303D04046E4
S1134F102946C84706436835F0E72468EBE730467E
S1134F20BDE8F883936810B5013B002B936009DA60
S1134F309469A34202DBCBB20A2B03D1BDE8104033
S1134F4000F0FABA1368581C10601970C8B210BD8A
S1134F50F8B506460F461446D518AC4208D030467C
S1134F6014F8011B3A46FFF7DDFF431CF5D100E0BE
S1134F700020F8BD2DE9F0439DB00D469046039303
S1134F80064618B183690BB9FFF744FF754B9D4280
S1134F9001D1756808E0744B9D4201D1B56803E006
S1134FA0724B9D4208BFF568AB891C070AD52B6973
S1134FB043B10023099320238DF8293030238DF841
S1134FC02A3041E03046294600F01CFB0028F0D08E
S1134FD04FF0FF30C2E0039A0134111D12680391AF
S1134FE0002ABBBF524243F0020307920792B8BFA4
S1134FF0049323782E2B7BD0DFF8808121784046E0
S1135000032200F087FC38B1049AC8EB0000402367
S1135010834013430493013421785548062204F154
S113502001088DF8281000F075FC002800F0858038
S1135030504B002B78D1039B073323F0070308332D
S11350400393099B3B44099343461C4613F8012BE5
S11350501AB9B4EB08090ED002E0252AF5D1F8E715
S11350603046294642464B46FFF772FF013070D066
S1135070099B4B4409932378002B6AD000234FF0FB
S1135080FF3204930793059206938DF853301A93D5
S113509004F101084446DFF8E890217848460522E7
S11350A000F038FC08F10108049B30B1C9EB0000A2
S11350B00122824013430493ECE7D80644BF202224
S11350C08DF85320190744BF2B228DF853202278E2
S11350D02A2A80D0234607991C4622780133303A85
S11350E0092A03D80A2000FB0121F5E7079180E78C
S11350F063782A2B0AD1039B02341A1D1B6803927E
S1135100002BB8BF4FF0FF33059375E7611C0022F5
S11351100C4623780131303B092B03D80A2000FBCD
S11351200232F5E7059267E703AB0093304604A922
S11351302A46114BAFF3008007E003AB00933046DF
S113514004A92A460C4B00F093F8421C07467FF44E
S113515078AFAB895B063FF53BAF09981DB0BDE85E
S1135160F08300BF6062000080620000A062000063
S1135170CA62000000000000514F0000C662000037
S1135180C06200002DE9F84391461F468A680B6906
S113519006469342B8BF1346C9F8003091F843203D
S11351A00C46DDF8208012B10133C9F800302368C1
S11351B0990642BFD9F800300233C9F80030256897
S11351C015F006051CD094F843302268003318BF4C
S11351D0012392061FD5E118302081F843005A1CA0
S11351E094F845102244023382F8431013E0304609
S11351F0394604F119020123C047013007D00135B3
S1135200E368D9F800209B1A9D42F0DBDBE74FF0FE
S1135210FF30BDE8F8833046394604F14302C04705
S11352200130F4D02268D9F80050E36802F0060295
S1135230042A08BF5D1B2269A3680CBF25EAE57533
S113524000259342C4BF9B1AED184FF00009A945ED
S11352500ADA3046394604F11A020123C047013004
S1135260D5D009F10109F2E70020BDE8F883000078
S11352702DE9FF410C461746227E98466E2A0646C3
S11352800A9B01F1430100F0B08012D8632A23D0B5
S11352900AD8002A00F0BD80582A40F0CC8084F857
S11352A04520DFF804E257E0642A1ED0692A1CD0A6
S11352B0C1E0732A00F0B18009D86F2A2ED0702A79
S11352C040F0B980226842F0200222603FE0752A53
S11352D024D0782A3BD0AEE01A6804F14205111DAF
S11352E01960136884F84230A9E020681A6810F045
S11352F0800F02D0101D186008E010F0400F02F17A
S11353000400186002D0B2F9003000E01368002BEA
S11353103EDA2D225B4284F8432039E020681A6883
S113532010F0800F02D0101D186007E010F0400F3D
S113533002F10400186001D0138800E01368227E93
S1135340DFF864E16F2A0CBF08220A221CE07822ED
S1135350DFF858E184F845202268186812F0800FBD
S113536000F104051D6003D1550601D5038800E052
S11353700368D00744BF42F0200222601BB92268B0
S113538022F0200222601022002084F8430002E070
S1135390DFF814E10A226568002DA8BF2068A56023
S11353A0A4BF20F00400206003B965B10D46B3FB2F
S11353B0F2F002FB10331EF8033005F8013D0346FA
S11353C00028F4D100E00D46082A0BD12368DA073F
S11353D008D5236962689A42DEBF302305F8013C90
S11353E005F1FF35491B21612EE025681A6815F087
S11353F0800F606903D0151D1D60136808E015F067
S1135400400F02F104051D60136801D0188000E00C
S11354101860002323610D4616E01A68111D1960F7
S1135420156800212846626800F074FA08B1401B30
S11354306060636804E004F1420584F842200123BB
S11354402361002384F84330CDF8008030462146A0
S113545003AA3B46FFF796FE013002D14FF0FF301E
S11354601FE0304639462A462369C0470130F5D04B
S113547023689B0705D4E068039B9842B8BF18468D
S11354800FE00025E368039A9B1A9D42F3DA304645
S1135490394604F119020123C0470130DED0013539
S11354A0F0E704B0BDE8F081D1620000E2620000E0
S11354B010B50C46B1F90E1000F03AFA0028ABBF53
S11354C0636DA3891B1823F48053ACBF6365A38168
S11354D010BD2DE9F0411D468B890746DB050C46BE
S11354E0164605D5B1F90E100022022300F0B4F9D6
S11354F0A389384623F48053A381B4F90E103246AD
S11355002B46BDE8F04100F06BB810B50C46B1F97C
S11355100E1000F0A1F9431CA38915BF606523F4A4
S1135520805343F48053A38118BFA38110BDB1F904
S11355300E1000F0D3B8000070B50D4614460646B0
S113554018B183690BB9FFF765FC224B9C4201D16A
S1135550746808E0204B9C4201D1B46803E01F4BFF
S11355609C4208BFF468A369A360A3891A0709D5FC
S113557023693BB123682069EDB2181A6369984224
S11355800FDB08E03046214600F03CF80028F1D05B
S11355904FF0FF3070BD3046214600F033F900284B
S11355A0F6D1A3680130013BA36023685A1C226032
S11355B01D706369984204D0A389DB0707D50A2DBF
S11355C005D13046214600F01DF90028E0D12846D7
S11355D070BD00BF6062000080620000A062000035
S11355E038B5074C054600202060084611461A4687
S11355F0FDF7CEFE431C02D1236803B12B6038BDF6
S1135600C8230020314B70B51D6806460C4625B1F1
S1135610AB6913B92846FFF7FDFB2D4B9C4201D122
S11356206C6808E02B4B9C4201D1AC6803E02A4B28
S11356309C4208BFEC68A3899AB211071DD4D50611
S113564002D40922326038E0500712D5616B41B1AF
S113565004F14403994202D03046FFF7D9FA0023FB
S11356606363A38923F02403A38100236360236974
S11356702360A38943F00803A38123694BB9A38959
S113568003F42073B3F5007F03D03046214600F0C5
S1135690F5F8A38913F0010205D00022A260626923
S11356A05242A26103E0990758BF6269A26022696D
S11356B04AB903F0800080B230B143F04003A381C3
S11356C04FF0FF3070BD002070BD00BF6C000020A3
S11356D06062000080620000A062000038B5064CE1
S11356E00023054608462360FEF748FF431C02D109
S11356F0236803B12B6038BDC82300208A892DE9B3
S1135700F041054610070C4657D44B68002B02DCC9
S11357100B6C002B18DDE66AB6B102F4805200234C
S113572092B22F682B600AB1626D10E0216A28469C
S11357300123B047411C024609D12B683BB11D2B04
S113574001D0162B46D12F600020BDE8F081A3893B
S11357505B0705D56368D21A636B0BB1236CD21A4D
S1135760E66A00232846216AB047461CA38905D16E
S11357702A681AB11D2A01D0162A19D100226260A2
S11357802269D904226004D5421C01D12B6803B9D3
S11357906065616B2F600029D6D004F144039942FF
S11357A002D02846FFF734FA00206063BDE8F08198
S11357B043F04003A381BDE8F0810F69002FC3D0FB
S11357C093070E680CBF4B690023C7EB06080F60F4
S11357D08B6012E0A3894FF0FF3043F04003A381B4
S11357E0BDE8F0812846216A3A464346A66AB04796
S11357F00028EFDD0744C0EB0808B8F1000FF1DC26
S1135800A2E7000038B50B6905460C46DBB118B1B8
S113581083690BB9FFF7FEFA0C4B9C4201D16C680B
S113582008E00B4B9C4201D1AC6803E0094B9C425D
S113583008BFEC68B4F90C302BB128462146BDE80A
S11358403840FFF75BBF002038BD00BF6062000036
S113585080620000A062000038B5074C05460020B5
S11358602060084611461A46FEF774FE431C02D116
S1135870236803B12B6038BDC8230020F0B58B89A1
S113588091B09D0706460C4625D4B1F90E100029A7
S113589008DAA389002513F0800F14BF40274FF4C2
S11358A080670DE001AA00F055F80028F1DB029DA5
S11358B04FF4806705F47045A5F500514D424D4104
S11358C030463946FFF7E8F960B9A3899A051DD433
S11358D043F00203A38104F14703236023610123FE
S11358E0636113E00A4BB362A389206043F0800331
S11358F0A381206167614DB13046B4F90E1000F008
S11359003BF818B1A38943F00103A38111B0F0BDA2
S1135910954D000010B5C9B202449042034605D02B
S11359201C7801308C42F8D1184610BD002010BDFF
S113593038B5074C054600202060084611461A4633
S1135940FEF7FCFD431C02D1236803B12B6038BD74
S1135950C823002038B5074C0023054608461146E5
S11359602360FEF705FE431C02D1236803B12B60BC
S113597038BD00BFC823002038B5064C00230546B7
S113598008462360FEF7E8FD431C02D1236803B1F7
S11359902B6038BDC8230020044A05491368002B36
S11359A008BF0B4618441060184670475801002081
S11359B0D0230020FEE700BFF8B500BFF8BC08BC48
S11359C09E467047F8B500BFF8BC08BC9E467047B9
S11359D02E2E2F656D6C69622F656D5F6164632E79
S11359E0630000002F4170706C69636174696F6EAD
S11359F0732F53696D706C6963697479205374757E
S1135A0064696F2E6170702F436F6E74656E74736A
S1135A102F45636C697073652F646576656C6F7070
S1135A2065722F73646B732F65787833322F7635F4
S1135A302E302E302E302F706C6174666F726D2F85
S1135A40656D6C69622F7372632F656D5F636D752D
S1135A502E6300002F4170706C69636174696F6E0E
S1135A60732F53696D706C6963697479205374750D
S1135A7064696F2E6170702F436F6E74656E7473FA
S1135A802F45636C697073652F646576656C6F7000
S1135A9065722F73646B732F65787833322F763584
S1135AA02E302E302E302F2F706C6174666F726D15
S1135AB02F656D6C69622F696E632F656D5F636D11
S1135AC0752E68002E2E2F656D6C69622F656D5FD3
S1135AD0646D612E630000002F4170706C69636116
S1135AE074696F6E732F53696D706C69636974792F
S1135AF02053747564696F2E6170702F436F6E74D8
S1135B00656E74732F45636C697073652F64657675
S1135B10656C6F7065722F73646B732F657878335F
S1135B20322F76352E302E302E302F706C61746605
S1135B306F726D2F656D6C69622F7372632F656D63
S1135B405F6770696F2E63002F4170706C696361C9
S1135B5074696F6E732F53696D706C6963697479BE
S1135B602053747564696F2E6170702F436F6E7467
S1135B70656E74732F45636C697073652F64657605
S1135B80656C6F7065722F73646B732F65787833EF
S1135B90322F76352E302E302E302F2F706C6174CC
S1135BA0666F726D2F656D6C69622F696E632F6508
S1135BB06D5F6770696F2E68000000002E2E2F65E0
S1135BC06D6C69622F656D5F7072732E63000000E7
S1135BD02F4170706C69636174696F6E732F5369C0
S1135BE06D706C69636974792053747564696F2E80
S1135BF06170702F436F6E74656E74732F45636CA0
S1135C00697073652F646576656C6F7065722F7348
S1135C10646B732F65787833322F76352E302E30BF
S1135C202E302F706C6174666F726D2F656D6C69A8
S1135C30622F7372632F656D5F73797374656D2E54
S1135C4063000000010000000A000000640000007E
S1135C50E803000010270000A0860100A0860100D0
S1135C60A08601002D34362E32323232000000007C
S1135C702D312E32323232002D33352E35000000D4
S1135C802D38392E323500002D3133382E340000B2
S1135C902D31322E34343434000000002D312E39AD
S1135CA000000000312E3833333300002D34392EF8
S1135CB0300000002D34322E300000002D38342EF8
S1135CC038383839000000002D35302E34000000FB
S1135CD032302E32000000002D38332E3300000005
